{"abi":[{"type":"constructor","inputs":[{"name":"_token0","type":"address","internalType":"address"},{"name":"_token1","type":"address","internalType":"address"}],"stateMutability":"nonpayable"},{"type":"function","name":"_priceOracle","inputs":[],"outputs":[{"name":"","type":"uint256","internalType":"uint256"}],"stateMutability":"view"},{"type":"function","name":"balances","inputs":[{"name":"i","type":"uint256","internalType":"uint256"}],"outputs":[{"name":"","type":"uint256","internalType":"uint256"}],"stateMutability":"view"},{"type":"function","name":"exchange","inputs":[{"name":"i","type":"int128","internalType":"int128"},{"name":"j","type":"int128","internalType":"int128"},{"name":"dx","type":"uint256","internalType":"uint256"},{"name":"min_dy","type":"uint256","internalType":"uint256"}],"outputs":[{"name":"dy","type":"uint256","internalType":"uint256"}],"stateMutability":"nonpayable"},{"type":"function","name":"get_dy","inputs":[{"name":"","type":"int128","internalType":"int128"},{"name":"","type":"int128","internalType":"int128"},{"name":"dx","type":"uint256","internalType":"uint256"}],"outputs":[{"name":"","type":"uint256","internalType":"uint256"}],"stateMutability":"pure"},{"type":"function","name":"last_price","inputs":[],"outputs":[{"name":"","type":"uint256","internalType":"uint256"}],"stateMutability":"view"},{"type":"function","name":"price_oracle","inputs":[],"outputs":[{"name":"","type":"uint256","internalType":"uint256"}],"stateMutability":"view"},{"type":"function","name":"setPriceOracle","inputs":[{"name":"p","type":"uint256","internalType":"uint256"}],"outputs":[],"stateMutability":"nonpayable"},{"type":"function","name":"token0","inputs":[],"outputs":[{"name":"","type":"address","internalType":"contract IERC20"}],"stateMutability":"view"},{"type":"function","name":"token1","inputs":[],"outputs":[{"name":"","type":"address","internalType":"contract IERC20"}],"stateMutability":"view"}],"bytecode":{"object":"0x60803461009857601f61062638819003918201601f19168301916001600160401b0383118484101761009c57808492604094855283398101031261009857610052602061004b836100b0565b92016100b0565b670de0b6b3a76400006002555f80546001600160a01b039384166001600160a01b0319918216179091556001805492909316911617905560405161056190816100c58239f35b5f80fd5b634e487b7160e01b5f52604160045260245ffd5b51906001600160a01b03821682036100985756fe60806040818152600480361015610014575f80fd5b5f3560e01c9283630dfe1681146103c6575082633df021241461013b5782634903b0d1146101165782635e0d443f146100e7578263625c513b146100d05750816386fc88d314610083578163aa588fa2146100b3578163d21220a714610088575063fde625e614610083575f80fd5b610408565b346100af575f3660031901126100af5760015490516001600160a01b039091168152602090f35b5f80fd5b346100af575f3660031901126100af576020906002549051908152f35b346100af5760203660031901126100af5735600255005b50346100af5760603660031901126100af576020906101046103e8565b5061010d6103f8565b50516044358152f35b90346100af5760203660031901126100af5761013460209235610473565b9051908152f35b90346100af5760803660031901126100af576101556103e8565b9061015e6103f8565b60443592606435841061039857600f0b80158061038b575b156102865750505f805482516323b872dd60e01b8152338682019081523060208281019190915260408201879052936001600160a01b039385928492918616918391829060600103925af1801561027c57958392869261020b9861025f575b50600154865163a9059cbb60e01b815233938101938452602084019490945292978893919091169183915f918391604090910190565b03925af193841561025557602094610227575b50505b51908152f35b8161024692903d1061024e575b61023e8183610425565b81019061045b565b50838061021e565b503d610234565b82513d5f823e3d90fd5b61027590853d871161024e5761023e8183610425565b50886101d5565b84513d5f823e3d90fd5b600114908161037f575b5061029f575b60209250610221565b60015481516323b872dd60e01b8152338582019081523060208083019190915260408201869052926001600160a01b039291849183918290036060019082905f9087165af1801561027c57958392869261032a98610362575b505f8054875163a9059cbb60e01b81523394810194855260208501959095529398899492909216928492839160400190565b03925af193841561025557602094610344575b5050610296565b8161035a92903d1061024e5761023e8183610425565b50838061033d565b61037890853d871161024e5761023e8183610425565b50886102f8565b9050600f0b1584610290565b50600182600f0b14610176565b825162461bcd60e51b81526020818701526008602482015267736c69707061676560c01b6044820152606490fd5b346100af575f3660031901126100af575f546001600160a01b03168152602090f35b6004359081600f0b82036100af57565b6024359081600f0b82036100af57565b346100af575f3660031901126100af576020600254604051908152f35b90601f8019910116810190811067ffffffffffffffff82111761044757604052565b634e487b7160e01b5f52604160045260245ffd5b908160209103126100af575180151581036100af5790565b156104ef576001546040516370a0823160e01b815230600482015290602090829060249082906001600160a01b03165afa9081156104e4575f916104b5575090565b90506020813d6020116104dc575b816104d060209383610425565b810103126100af575190565b3d91506104c3565b6040513d5f823e3d90fd5b5f546040516370a0823160e01b815230600482015290602090829060249082906001600160a01b03165afa9081156104e4575f916104b557509056fea2646970667358221220ca6f789e1322ebf4ecd09bd182e3f4d118836cf834cdc11d572ce8ef14945a1964736f6c63430008180033","linkReferences":{}},"methodIdentifiers":{"_priceOracle()":"aa588fa2","balances(uint256)":"4903b0d1","exchange(int128,int128,uint256,uint256)":"3df02124","get_dy(int128,int128,uint256)":"5e0d443f","last_price()":"fde625e6","price_oracle()":"86fc88d3","setPriceOracle(uint256)":"625c513b","token0()":"0dfe1681","token1()":"d21220a7"},"id":51}