{"abi":[{"type":"constructor","inputs":[{"name":"_morpho","type":"address","internalType":"address"},{"name":"_collateral","type":"address","internalType":"address"},{"name":"_loan","type":"address","internalType":"address"},{"name":"_oracle","type":"address","internalType":"address"},{"name":"_irm","type":"address","internalType":"address"},{"name":"_lltv","type":"uint256","internalType":"uint256"},{"name":"_vault","type":"address","internalType":"address"}],"stateMutability":"nonpayable"},{"type":"function","name":"borrow","inputs":[{"name":"amount","type":"uint256","internalType":"uint256"}],"outputs":[],"stateMutability":"nonpayable"},{"type":"function","name":"collateralBalance","inputs":[],"outputs":[{"name":"","type":"uint256","internalType":"uint256"}],"stateMutability":"view"},{"type":"function","name":"collateralToken","inputs":[],"outputs":[{"name":"","type":"address","internalType":"contract IERC20"}],"stateMutability":"view"},{"type":"function","name":"currentBorrowRate","inputs":[],"outputs":[{"name":"","type":"uint256","internalType":"uint256"}],"stateMutability":"view"},{"type":"function","name":"debtBalance","inputs":[],"outputs":[{"name":"","type":"uint256","internalType":"uint256"}],"stateMutability":"view"},{"type":"function","name":"depositCollateral","inputs":[{"name":"amount","type":"uint256","internalType":"uint256"}],"outputs":[],"stateMutability":"nonpayable"},{"type":"function","name":"healthFactor","inputs":[],"outputs":[{"name":"","type":"uint256","internalType":"uint256"}],"stateMutability":"view"},{"type":"function","name":"liquidationThreshold","inputs":[],"outputs":[{"name":"","type":"uint256","internalType":"uint256"}],"stateMutability":"view"},{"type":"function","name":"loanToken","inputs":[],"outputs":[{"name":"","type":"address","internalType":"contract IERC20"}],"stateMutability":"view"},{"type":"function","name":"marketId","inputs":[],"outputs":[{"name":"","type":"bytes32","internalType":"Id"}],"stateMutability":"view"},{"type":"function","name":"marketParams","inputs":[],"outputs":[{"name":"loanToken","type":"address","internalType":"address"},{"name":"collateralToken","type":"address","internalType":"address"},{"name":"oracle","type":"address","internalType":"address"},{"name":"irm","type":"address","internalType":"address"},{"name":"lltv","type":"uint256","internalType":"uint256"}],"stateMutability":"view"},{"type":"function","name":"maxBorrow","inputs":[],"outputs":[{"name":"","type":"uint256","internalType":"uint256"}],"stateMutability":"view"},{"type":"function","name":"morpho","inputs":[],"outputs":[{"name":"","type":"address","internalType":"contract IMorpho"}],"stateMutability":"view"},{"type":"function","name":"repay","inputs":[{"name":"amount","type":"uint256","internalType":"uint256"}],"outputs":[],"stateMutability":"nonpayable"},{"type":"function","name":"rescueTokens","inputs":[{"name":"token","type":"address","internalType":"address"},{"name":"to","type":"address","internalType":"address"},{"name":"amount","type":"uint256","internalType":"uint256"}],"outputs":[],"stateMutability":"nonpayable"},{"type":"function","name":"vault","inputs":[],"outputs":[{"name":"","type":"address","internalType":"address"}],"stateMutability":"view"},{"type":"function","name":"withdrawCollateral","inputs":[{"name":"amount","type":"uint256","internalType":"uint256"}],"outputs":[],"stateMutability":"nonpayable"},{"type":"error","name":"ReentrancyGuardReentrantCall","inputs":[]},{"type":"error","name":"SafeERC20FailedOperation","inputs":[{"name":"token","type":"address","internalType":"address"}]}],"bytecode":{"object":"0x6101006040818152346200030d5760e082620016eb803803809162000025828562000311565b8339810103126200030d576200003b8262000335565b6020906200004b82850162000335565b6200005884860162000335565b91620000676060870162000335565b95620000766080820162000335565b9660a0976200008c60c08a850151940162000335565b9260017f9b779b17422d0df92223018b32b4d1fa46e071723d6817e2486d003becc55f005560018060a01b03808080971697886080521697888c5216938460c05260e0528851928a84019060018060401b039685831088841117620002f9578060809285948e528888528b8d8901521694858d880152169485606082015201528260018060a01b031985815f5416175f55888160015416176001558381600254161760025560035416176003558060045588519288840192858452888b860152606085015260808401528983015288825260c082019382851090851117620002f9578388528151902060055563095ea7b360e01b928381528460c483015286816044815f80199a8b60e48901525af18015620002ef5792879594925f92604495620002b6575b5050885196879586948552600485015260248401525af18015620002ac5762000277575b5050516113869182620003658339608051828181610139015281816102810152818161039c015281816104b00152818161066a015281816107e40152818161088101528181610a2801528181610d610152610fa201525181818161048a0152610575015260c0518181816107850152610bca015260e05181818160f2015281816101a70152818161032c0152818161045201528181610632015261074d0152f35b816200029b92903d10620002a4575b62000292818362000311565b8101906200034a565b505f80620001d6565b503d62000286565b83513d5f823e3d90fd5b60c0620002dd9289903d8b11620002e6575b620002d4828562000311565b0101906200034a565b505f80620001b2565b3d9150620002c8565b88513d5f823e3d90fd5b634e487b7160e01b5f52604160045260245ffd5b5f80fd5b601f909101601f19168101906001600160401b03821190821017620002f957604052565b51906001600160a01b03821682036200030d57565b908160209103126200030d575180151581036200030d579056fe6080604081815260049182361015610015575f80fd5b5f925f3560e01c91826306d3781714610bb8575081630cc0bfa5146109f257816322841f01146109d65781632e2f14ca14610849578163371fd8e61461071e5781634031234c146107025781636112fe2e146106145781636ed71ede146105f55781637b9e68f2146105a4578163b2016bd41461056057838263bad4a01f1461042d57508163bf1eb64a14610409578163c5ebeaec1461030c578163c98c05b714610246578163cea9d26f1461016857508063d8fbc833146101255763fbfa77cf146100df575f80fd5b34610121578160031936011261012157517f00000000000000000000000000000000000000000000000000000000000000006001600160a01b03168152602090f35b5080fd5b5034610121578160031936011261012157517f00000000000000000000000000000000000000000000000000000000000000006001600160a01b03168152602090f35b905034610242576060366003190112610242576001600160a01b0391813583811692919083900361023e576024359380851680950361023e576101ce907f0000000000000000000000000000000000000000000000000000000000000000163314610f0e565b80519363a9059cbb60e01b865282526044356024528360208660448180885af1916001875114831615610219575b5215610206578380f35b635274afe760e01b835282015260249150fd5b9190506001811516610235578490843b15153d151616916101fc565b843d87823e3d90fd5b5f80fd5b8280fd5b90503461024257826003193601126102425760055482516349e2903160e11b81529182019081523060208201526060908290819060400103817f00000000000000000000000000000000000000000000000000000000000000006001600160a01b03165afa908115610300576001600160801b03918391602095916102d1575b500151169051908152f35b6102f3915060603d6060116102f9575b6102eb8183610c21565b810190610c57565b5f6102c6565b503d6102e1565b505051903d90823e3d90fd5b905034610242576020366003190112610242576001600160a01b039082907f00000000000000000000000000000000000000000000000000000000000000008316906101249061035d338414610f0e565b610365611278565b86845195869485936350d8cd4b60e01b8552610382818601610ed7565b3560a48501528260c48501523060e48501526101048401527f0000000000000000000000000000000000000000000000000000000000000000165af18015610300576103de575b8260015f805160206113318339815191525580f35b816103fd92903d10610402575b6103f58183610c21565b810190610f65565b6103c9565b503d6103eb565b505034610121578160031936011261012157602090610426610f7b565b9051908152f35b8091843461055c57602036600319011261055c578135916001600160a01b036104ae847f000000000000000000000000000000000000000000000000000000000000000061047e3385831614610f0e565b610486611278565b30907f00000000000000000000000000000000000000000000000000000000000000006112a7565b7f00000000000000000000000000000000000000000000000000000000000000001690813b15610558576101246104fa918680948651978895869463238d657960e01b86528501610ed7565b60a48401523060c484015261010060e4840152816101048401525af190811561054f5750610538575b5060015f805160206113318339815191525580f35b61054190610bf9565b61054c578082610523565b80fd5b513d84823e3d90fd5b8480fd5b5050fd5b505034610121578160031936011261012157517f00000000000000000000000000000000000000000000000000000000000000006001600160a01b03168152602090f35b8383346101215781600319360112610121579054600154600254600354945484516001600160a01b03948516815292841660208401529083169382019390935292166060830152608082015260a090f35b5050346101215781600319360112610121576020906005549051908152f35b9190503461023e57602036600319011261023e576001600160a01b037f000000000000000000000000000000000000000000000000000000000000000081169290610660338514610f0e565b610668611278565b7f00000000000000000000000000000000000000000000000000000000000000001692833b1561023e576101045f928385519687948593638720316d60e01b85526106b4818601610ed7565b3560a48501523060c485015260e48401525af19081156106f957506106e8575060015f805160206113318339815191525580f35b6106f29150610bf9565b5f80610523565b513d5f823e3d90fd5b823461023e575f36600319011261023e57602091549051908152f35b90503461023e57602036600319011261023e5780359082906107c190610144905f6001600160a01b036107a9877f00000000000000000000000000000000000000000000000000000000000000006107793385831614610f0e565b610781611278565b30907f00000000000000000000000000000000000000000000000000000000000000006112a7565b85516320b76e8160e01b815296879586948501610ed7565b60a48401528160c48401523060e4840152610120610104840152816101248401527f0000000000000000000000000000000000000000000000000000000000000000165af1801561083f57610824575b60015f8051602061133183398151915255005b8161083a92903d10610402576103f58183610c21565b610811565b82513d5f823e3d90fd5b90503461023e575f36600319011261023e576005548251632e3071cd60e11b8152828101919091526001600160a01b0360c0826024817f000000000000000000000000000000000000000000000000000000000000000085165afa9182156109cc5791610164939160a095935f9261099b575b5060035416835194858092638c00bf6b60e01b82526108dc868301610ed7565b6001600160801b038086511660a484015260209986828c809901511660c4860152828a8201511660e486015282606082015116610104860152826080820151166101248601520151166101448301525afa92831561083f575f9361096c575b506301e187e092838102938185041490151715610959575051908152f35b601190634e487b7160e01b5f525260245ffd5b9092508381813d8311610994575b6109848183610c21565b8101031261023e5751918461093b565b503d61097a565b6109be91925060c03d60c0116109c5575b6109b68183610c21565b810190610ca9565b90866108bc565b503d6109ac565b84513d5f823e3d90fd5b823461023e575f36600319011261023e57602090610426610d36565b823461023e575f36600319011261023e5760055481516349e2903160e11b81528381018281523060208201526001600160a01b037f00000000000000000000000000000000000000000000000000000000000000008116959291606090839081906040010381895afa918215610bae575f92610b8d575b5060025416845195869163501ad8ff60e11b835282856020998a935afa918215610b54575f92610b5e575b5060c0610ab9610ab16001600160801b0394858a8801511661108d565b865490611120565b956024885180948193632e3071cd60e11b8352898301525afa908115610b54575f91610b35575b5081875f940151169182610b16575b50505080831115610b0c5782039182116109595750905b51908152f35b5050505f90610b06565b610b2d935060608188840151169201511691611241565b858080610aef565b610b4e915060c03d60c0116109c5576109b68183610c21565b87610ae0565b86513d5f823e3d90fd5b9091508681813d8311610b86575b610b768183610c21565b8101031261023e57519087610a94565b503d610b6c565b610ba791925060603d6060116102f9576102eb8183610c21565b9086610a69565b85513d5f823e3d90fd5b3461023e575f36600319011261023e577f00000000000000000000000000000000000000000000000000000000000000006001600160a01b03168152602090f35b67ffffffffffffffff8111610c0d57604052565b634e487b7160e01b5f52604160045260245ffd5b90601f8019910116810190811067ffffffffffffffff821117610c0d57604052565b51906001600160801b038216820361023e57565b9081606091031261023e57604051906060820182811067ffffffffffffffff821117610c0d57610ca191604091825280518452610c9660208201610c43565b602085015201610c43565b604082015290565b908160c091031261023e576040519060c0820182811067ffffffffffffffff821117610c0d57610d2e9160a091604052610ce281610c43565b8452610cf060208201610c43565b6020850152610d0160408201610c43565b6040850152610d1260608201610c43565b6060850152610d2360808201610c43565b608085015201610c43565b60a082015290565b600554604080516349e2903160e11b81526004810183905230602482015290916001600160a01b03907f00000000000000000000000000000000000000000000000000000000000000008216606084604481845afa938415610bae575f94610eb6575b50602084016001600160801b03928382511615610eaa5760c0906024885180958193632e3071cd60e11b835260048301525afa918215610b5457610df8929184915f93610e89575b505116908360608189840151169201511691611241565b928315610e7f5760206004936002541686519485809263501ad8ff60e11b82525afa928315610bae575f93610e47575b5090610e4494610e3b939201511661108d565b60045490611193565b90565b9250906020833d602011610e77575b81610e6360209383610c21565b8101031261023e5791519190610e44610e28565b3d9150610e56565b50505050505f1990565b610ea391935060c03d60c0116109c5576109b68183610c21565b915f610de1565b505050505050505f1990565b610ed091945060603d6060116102f9576102eb8183610c21565b925f610d99565b5f546001600160a01b0390811682526001548116602083015260025481166040830152600354166060820152600454608090910152565b15610f1557565b60405162461bcd60e51b815260206004820152602260248201527f4d6f7270686f416461707465723a2063616c6c6572206973206e6f74207661756044820152611b1d60f21b6064820152608490fd5b919082604091031261023e576020825192015190565b6005546040516349e2903160e11b8152600481018290523060248201526001600160a01b037f0000000000000000000000000000000000000000000000000000000000000000169190606081604481865afa801561105b576020915f9161106e575b5001916001600160801b039182845116156110665760c090602460405180948193632e3071cd60e11b835260048301525afa90811561105b57610e449383915f9361103a575b505116916060816040840151169201511691611241565b61105491935060c03d60c0116109c5576109b68183610c21565b915f611023565b6040513d5f823e3d90fd5b505050505f90565b611087915060603d6060116102f9576102eb8183610c21565b5f610fdd565b905f1981830981830291828083109203918083039214611108576ec097ce7bc90715b34b9f100000000090828211156110f6577f356317ffa45f828d2a41175b2aed3a20e7fdd4a4e46cc11944d93b01be7b1711940990828211900360dc1b910360241c170290565b634e487b715f5260116020526024601cfd5b50506ec097ce7bc90715b34b9f100000000091500490565b905f198183098183029182808310920391808303921461118257670de0b6b3a764000090828211156110f6577faccb18165bd6fe31ae1cf318dc5b51eee0e1ba569b88cd74c1773b91fac10669940990828211900360ee1b910360121c170290565b5050670de0b6b3a764000091500490565b90915f19838309928083029283808610950394808603951461121f57848311156112075790829109815f038216809204600280826003021880830282030280830282030280830282030280830282030280830282030280920290030293600183805f03040190848311900302920304170290565b82634e487b715f52156003026011186020526024601cfd5b50508092501561122d570490565b634e487b7160e01b5f52601260045260245ffd5b919061124e828285611193565b92821561122d5709151581018091116112645790565b634e487b7160e01b5f52601160045260245ffd5b5f8051602061133183398151915260028154146112955760029055565b604051633ee5aeb560e01b8152600490fd5b6040516323b872dd60e01b5f9081526001600160a01b03938416600452938316602452604494909452909160209060648180855af160015f5114811615611311575b836040525f606052156112fb57505050565b635274afe760e01b835216600482015260249150fd5b600181151661132757813b15153d1516166112e9565b833d5f823e3d90fdfe9b779b17422d0df92223018b32b4d1fa46e071723d6817e2486d003becc55f00a2646970667358221220e5923049637b2bd29b2efc44d5c8a7237abe1d6631162be03246e68fcde0aa2764736f6c63430008180033","linkReferences":{}},"methodIdentifiers":{"borrow(uint256)":"c5ebeaec","collateralBalance()":"c98c05b7","collateralToken()":"b2016bd4","currentBorrowRate()":"2e2f14ca","debtBalance()":"bf1eb64a","depositCollateral(uint256)":"bad4a01f","healthFactor()":"22841f01","liquidationThreshold()":"4031234c","loanToken()":"06d37817","marketId()":"6ed71ede","marketParams()":"7b9e68f2","maxBorrow()":"0cc0bfa5","morpho()":"d8fbc833","repay(uint256)":"371fd8e6","rescueTokens(address,address,uint256)":"cea9d26f","vault()":"fbfa77cf","withdrawCollateral(uint256)":"6112fe2e"},"id":43}