{"abi":[{"type":"constructor","inputs":[{"name":"_pool","type":"address","internalType":"address"},{"name":"_dataProvider","type":"address","internalType":"address"},{"name":"_collateralToken","type":"address","internalType":"address"},{"name":"_debtToken","type":"address","internalType":"address"},{"name":"_vault","type":"address","internalType":"address"}],"stateMutability":"nonpayable"},{"type":"function","name":"borrow","inputs":[{"name":"amount","type":"uint256","internalType":"uint256"}],"outputs":[],"stateMutability":"nonpayable"},{"type":"function","name":"collateralBalance","inputs":[],"outputs":[{"name":"","type":"uint256","internalType":"uint256"}],"stateMutability":"view"},{"type":"function","name":"collateralToken","inputs":[],"outputs":[{"name":"","type":"address","internalType":"contract IERC20"}],"stateMutability":"view"},{"type":"function","name":"currentBorrowRate","inputs":[],"outputs":[{"name":"","type":"uint256","internalType":"uint256"}],"stateMutability":"view"},{"type":"function","name":"dataProvider","inputs":[],"outputs":[{"name":"","type":"address","internalType":"contract IPoolDataProvider"}],"stateMutability":"view"},{"type":"function","name":"debtBalance","inputs":[],"outputs":[{"name":"","type":"uint256","internalType":"uint256"}],"stateMutability":"view"},{"type":"function","name":"debtToken","inputs":[],"outputs":[{"name":"","type":"address","internalType":"contract IERC20"}],"stateMutability":"view"},{"type":"function","name":"depositCollateral","inputs":[{"name":"amount","type":"uint256","internalType":"uint256"}],"outputs":[],"stateMutability":"nonpayable"},{"type":"function","name":"healthFactor","inputs":[],"outputs":[{"name":"","type":"uint256","internalType":"uint256"}],"stateMutability":"view"},{"type":"function","name":"liquidationThreshold","inputs":[],"outputs":[{"name":"","type":"uint256","internalType":"uint256"}],"stateMutability":"view"},{"type":"function","name":"maxBorrow","inputs":[],"outputs":[{"name":"","type":"uint256","internalType":"uint256"}],"stateMutability":"view"},{"type":"function","name":"pool","inputs":[],"outputs":[{"name":"","type":"address","internalType":"contract IPool"}],"stateMutability":"view"},{"type":"function","name":"repay","inputs":[{"name":"amount","type":"uint256","internalType":"uint256"}],"outputs":[],"stateMutability":"nonpayable"},{"type":"function","name":"rescueTokens","inputs":[{"name":"token","type":"address","internalType":"address"},{"name":"amount","type":"uint256","internalType":"uint256"}],"outputs":[],"stateMutability":"nonpayable"},{"type":"function","name":"vault","inputs":[],"outputs":[{"name":"","type":"address","internalType":"address"}],"stateMutability":"view"},{"type":"function","name":"withdrawCollateral","inputs":[{"name":"amount","type":"uint256","internalType":"uint256"}],"outputs":[],"stateMutability":"nonpayable"},{"type":"error","name":"ReentrancyGuardReentrantCall","inputs":[]},{"type":"error","name":"SafeERC20FailedOperation","inputs":[{"name":"token","type":"address","internalType":"address"}]}],"bytecode":{"object":"0x610120346200021857601f6200122d38819003918201601f19168301916001600160401b038311848410176200021c5780849260a094604052833981010312620002185762000125620000528262000230565b620000606020840162000230565b6200011f82620000736040870162000230565b926200009060806200008860608a0162000230565b980162000230565b60017f9b779b17422d0df92223018b32b4d1fa46e071723d6817e2486d003becc55f0055966001600160a01b0383811695909283918290881515806200020c575b620000dc9062000245565b16968715158062000200575b620000f39062000245565b62000102838c16151562000245565b6080521660a0528460c05216928360e0526101009687526200027e565b6200027e565b604051610e759182620003b8833960805182818161029f015281816104c00152818161067b0152818161093e01528181610a9201528181610b200152610b78015260a0518281816101c4015281816103da0152818161056b015281816107a701526109dd015260c05182818161018401528181610495015281816105ae0152818161064a0152610771015260e05182818161012c015281816102c20152818161039a015281816108ec01526109a601525181818160e50152818161025c0152818161045b015281816105fd0152818161071601526108ae0152f35b508383161515620000e8565b508282161515620000d1565b5f80fd5b634e487b7160e01b5f52604160045260245ffd5b51906001600160a01b03821682036200021857565b156200024d57565b60405162461bcd60e51b81526020600482015260096024820152683d32b9379030b2323960b91b6044820152606490fd5b60405163095ea7b360e01b5f8181526001600160a01b0394851660048190525f19602481905292959493909160209060448180885af160015f5114811615620003a9575b8160405215620002d5575b505050505050565b855f52816004525f60245260205f60448180885af160015f511481161562000388575b8160405215620003715750604051945f5260045260245260205f60448180855af160015f511481161562000350575b83604052156200033a57808080620002cd565b635274afe760e01b835216600482015260249150fd5b60018115166200036857813b15153d15161662000327565b833d5f823e3d90fd5b635274afe760e01b81528385166004820152602490fd5b6001811516620003a057843b15153d151616620002f8565b503d5f823e3d90fd5b843b15153d151616620002c256fe6080604081815260049182361015610015575f80fd5b5f925f3560e01c9182630cc0bfa514610b4f5750816316f0115b14610b0c57816322841f0114610a645781632e2f14ca1461097f578163371fd8e61461088e5781634031234c1461074a57816357376198146106e85781636112fe2e146105dd578163b2016bd41461059a578163b334ed8614610557578163bad4a01f1461043b578163bf1eb64a14610371578163c5ebeaec14610243578163c98c05b71461015b57508063f8d89898146101185763fbfa77cf146100d2575f80fd5b34610114578160031936011261011457517f00000000000000000000000000000000000000000000000000000000000000006001600160a01b03168152602090f35b5080fd5b5034610114578160031936011261011457517f00000000000000000000000000000000000000000000000000000000000000006001600160a01b03168152602090f35b9190503461023f578260031936011261023f5780516328dd2d0160e01b81526001600160a01b037f0000000000000000000000000000000000000000000000000000000000000000811693820193845230602085015261012093849183918290819060400103917f0000000000000000000000000000000000000000000000000000000000000000165afa92831561023557602094936101fe575b505051908152f35b61021e929350803d1061022e575b6102168183610c11565b810190610cb9565b5050505050505050905f806101f6565b503d61020c565b82513d86823e3d90fd5b8280fd5b9190503461023f57602036600319011261023f578135907f00000000000000000000000000000000000000000000000000000000000000009084906001600160a01b03906102943383861614610c73565b61029c610d08565b817f000000000000000000000000000000000000000000000000000000000000000016917f000000000000000000000000000000000000000000000000000000000000000096833b1561036d5760a48592838551968794859363a415bcad60e01b85528d16908401528a6024840152600260448401528160648401523060848401525af1908115610364575061034c575b505061033892610dc0565b60015f80516020610e208339815191525580f35b61035590610be9565b61036057835f61032d565b8380fd5b513d84823e3d90fd5b8480fd5b9190503461023f578260031936011261023f5780516328dd2d0160e01b81526001600160a01b037f0000000000000000000000000000000000000000000000000000000000000000811693820193845230602085015261012093849183918290819060400103917f0000000000000000000000000000000000000000000000000000000000000000165afa928315610235576020949361041357505051908152f35b61042a929350803d1061022e576102168183610c11565b505050505050915050905f806101f6565b919050346105535760203660031901126105535781356001600160a01b037f00000000000000000000000000000000000000000000000000000000000000006104873383831614610c73565b61048f610d08565b6104bd837f000000000000000000000000000000000000000000000000000000000000000092309084610d37565b817f00000000000000000000000000000000000000000000000000000000000000001690813b15610553575f60849281958751988996879563617ba03760e01b8752169085015260248401523060448401528160648401525af190811561054a5750610539575b5060015f80516020610e208339815191525580f35b6105439150610be9565b5f80610524565b513d5f823e3d90fd5b5f80fd5b8234610553575f36600319011261055357517f00000000000000000000000000000000000000000000000000000000000000006001600160a01b03168152602090f35b8234610553575f36600319011261055357517f00000000000000000000000000000000000000000000000000000000000000006001600160a01b03168152602090f35b8234610553576020366003190112610553576001600160a01b03916020907f000000000000000000000000000000000000000000000000000000000000000084169060649061062d338414610c73565b610635610d08565b5f85519687948593631a4ca37b60e21b8552827f0000000000000000000000000000000000000000000000000000000000000000168186015235602485015260448401527f0000000000000000000000000000000000000000000000000000000000000000165af190811561054a57506106bd575b60015f80516020610e2083398151915255005b602090813d83116106e1575b6106d38183610c11565b8101031261055357806106aa565b503d6106c9565b823461055357366003190112610553576001600160a01b03903581811690819003610553576107489161073f7f00000000000000000000000000000000000000000000000000000000000000009182163314610c73565b60243591610dc0565b005b8234610553575f366003190112610553578051633e15014160e01b81526001600160a01b037f00000000000000000000000000000000000000000000000000000000000000008116848301526101409291908390829060249082907f0000000000000000000000000000000000000000000000000000000000000000165afa928315610884575f9361080e575b5050655af3107a4000918281029281840414901517156107fb576020925051908152f35b601183634e487b7160e01b5f525260245ffd5b9080929350813d831161087d575b6108268183610c11565b8101031261055357610874610120838301519261084560a08201610cac565b5061085260c08201610cac565b5061085f60e08201610cac565b5061086d6101008201610cac565b5001610cac565b509083806107d7565b503d61081c565b82513d5f823e3d90fd5b82346105535760203660031901126105535760206001600160a01b0360847f00000000000000000000000000000000000000000000000000000000000000005f8387356108de3383861614610c73565b6108e6610d08565b610914817f000000000000000000000000000000000000000000000000000000000000000095309087610d37565b8751988996879563573ade8160e01b875216908501526024840152600260448401523060648401527f0000000000000000000000000000000000000000000000000000000000000000165af190811561054a57506106bd5760015f80516020610e2083398151915255005b8234610553575f3660031901126105535780516335ea6a7560e01b81526001600160a01b037f0000000000000000000000000000000000000000000000000000000000000000811693820193909352610180928390829060249082907f0000000000000000000000000000000000000000000000000000000000000000165afa928315610884575f93610a1d575b602084633b9aca00855191048152f35b90809350813d8311610a5d575b610a348183610c11565b8101031261055357633b9aca0082610a5661016060c060209601519201610c61565b5092610a0d565b503d610a2a565b905034610553575f366003190112610553578151632fe4a15f60e21b8152309181019190915260c0816024817f00000000000000000000000000000000000000000000000000000000000000006001600160a01b03165afa90811561088457916020925f92610ad5575b5051908152f35b610af891925060c03d60c011610b05575b610af08183610c11565b810190610c33565b9450505050509083610ace565b503d610ae6565b8234610553575f36600319011261055357517f00000000000000000000000000000000000000000000000000000000000000006001600160a01b03168152602090f35b915034610553575f36600319011261055357632fe4a15f60e21b8252309082015260c0816024817f00000000000000000000000000000000000000000000000000000000000000006001600160a01b03165afa90811561088457916020925f92610bbf575b506064905191048152f35b6064919250610bdc9060c03d60c011610b0557610af08183610c11565b5050509150509190610bb4565b67ffffffffffffffff8111610bfd57604052565b634e487b7160e01b5f52604160045260245ffd5b90601f8019910116810190811067ffffffffffffffff821117610bfd57604052565b91908260c09103126105535781519160208101519160408201519160608101519160a0608083015192015190565b519064ffffffffff8216820361055357565b15610c7a57565b60405162461bcd60e51b815260206004820152600a6024820152691bdb9b1e481d985d5b1d60b21b6044820152606490fd5b5190811515820361055357565b90816101209103126105535780519160208201519160408101519160608201519160808101519160a08201519160c081015191610d05610100610cfe60e08501610c61565b9301610cac565b90565b5f80516020610e208339815191526002815414610d255760029055565b604051633ee5aeb560e01b8152600490fd5b6040516323b872dd60e01b5f9081526001600160a01b03938416600452938316602452604494909452909160209060648180855af160015f5114811615610da1575b836040525f60605215610d8b57505050565b635274afe760e01b835216600482015260249150fd5b6001811516610db757813b15153d151616610d79565b833d5f823e3d90fd5b60405163a9059cbb60e01b5f9081526001600160a01b039384166004526024949094529260209060448180855af160015f5114811615610e09575b8360405215610d8b57505050565b6001811516610db757813b15153d151616610dfb56fe9b779b17422d0df92223018b32b4d1fa46e071723d6817e2486d003becc55f00a2646970667358221220a1a829b5f9d4948e5d8ac680ad7b81127859a3ebba0b24f2735e0847f6874bf864736f6c63430008180033","linkReferences":{}},"methodIdentifiers":{"borrow(uint256)":"c5ebeaec","collateralBalance()":"c98c05b7","collateralToken()":"b2016bd4","currentBorrowRate()":"2e2f14ca","dataProvider()":"b334ed86","debtBalance()":"bf1eb64a","debtToken()":"f8d89898","depositCollateral(uint256)":"bad4a01f","healthFactor()":"22841f01","liquidationThreshold()":"4031234c","maxBorrow()":"0cc0bfa5","pool()":"16f0115b","repay(uint256)":"371fd8e6","rescueTokens(address,uint256)":"57376198","vault()":"fbfa77cf","withdrawCollateral(uint256)":"6112fe2e"},"id":42}