{"abi":[{"type":"constructor","inputs":[{"name":"name_","type":"string","internalType":"string"},{"name":"symbol_","type":"string","internalType":"string"},{"name":"vault_","type":"address","internalType":"address"}],"stateMutability":"nonpayable"},{"type":"function","name":"allowance","inputs":[{"name":"owner","type":"address","internalType":"address"},{"name":"spender","type":"address","internalType":"address"}],"outputs":[{"name":"","type":"uint256","internalType":"uint256"}],"stateMutability":"view"},{"type":"function","name":"approve","inputs":[{"name":"spender","type":"address","internalType":"address"},{"name":"value","type":"uint256","internalType":"uint256"}],"outputs":[{"name":"","type":"bool","internalType":"bool"}],"stateMutability":"nonpayable"},{"type":"function","name":"balanceOf","inputs":[{"name":"account","type":"address","internalType":"address"}],"outputs":[{"name":"","type":"uint256","internalType":"uint256"}],"stateMutability":"view"},{"type":"function","name":"burn","inputs":[{"name":"from","type":"address","internalType":"address"},{"name":"amount","type":"uint256","internalType":"uint256"}],"outputs":[],"stateMutability":"nonpayable"},{"type":"function","name":"decimals","inputs":[],"outputs":[{"name":"","type":"uint8","internalType":"uint8"}],"stateMutability":"view"},{"type":"function","name":"mint","inputs":[{"name":"to","type":"address","internalType":"address"},{"name":"amount","type":"uint256","internalType":"uint256"}],"outputs":[],"stateMutability":"nonpayable"},{"type":"function","name":"name","inputs":[],"outputs":[{"name":"","type":"string","internalType":"string"}],"stateMutability":"view"},{"type":"function","name":"symbol","inputs":[],"outputs":[{"name":"","type":"string","internalType":"string"}],"stateMutability":"view"},{"type":"function","name":"totalSupply","inputs":[],"outputs":[{"name":"","type":"uint256","internalType":"uint256"}],"stateMutability":"view"},{"type":"function","name":"transfer","inputs":[{"name":"to","type":"address","internalType":"address"},{"name":"value","type":"uint256","internalType":"uint256"}],"outputs":[{"name":"","type":"bool","internalType":"bool"}],"stateMutability":"nonpayable"},{"type":"function","name":"transferFrom","inputs":[{"name":"from","type":"address","internalType":"address"},{"name":"to","type":"address","internalType":"address"},{"name":"value","type":"uint256","internalType":"uint256"}],"outputs":[{"name":"","type":"bool","internalType":"bool"}],"stateMutability":"nonpayable"},{"type":"function","name":"vault","inputs":[],"outputs":[{"name":"","type":"address","internalType":"address"}],"stateMutability":"view"},{"type":"event","name":"Approval","inputs":[{"name":"owner","type":"address","indexed":true,"internalType":"address"},{"name":"spender","type":"address","indexed":true,"internalType":"address"},{"name":"value","type":"uint256","indexed":false,"internalType":"uint256"}],"anonymous":false},{"type":"event","name":"Transfer","inputs":[{"name":"from","type":"address","indexed":true,"internalType":"address"},{"name":"to","type":"address","indexed":true,"internalType":"address"},{"name":"value","type":"uint256","indexed":false,"internalType":"uint256"}],"anonymous":false},{"type":"error","name":"ERC20InsufficientAllowance","inputs":[{"name":"spender","type":"address","internalType":"address"},{"name":"allowance","type":"uint256","internalType":"uint256"},{"name":"needed","type":"uint256","internalType":"uint256"}]},{"type":"error","name":"ERC20InsufficientBalance","inputs":[{"name":"sender","type":"address","internalType":"address"},{"name":"balance","type":"uint256","internalType":"uint256"},{"name":"needed","type":"uint256","internalType":"uint256"}]},{"type":"error","name":"ERC20InvalidApprover","inputs":[{"name":"approver","type":"address","internalType":"address"}]},{"type":"error","name":"ERC20InvalidReceiver","inputs":[{"name":"receiver","type":"address","internalType":"address"}]},{"type":"error","name":"ERC20InvalidSender","inputs":[{"name":"sender","type":"address","internalType":"address"}]},{"type":"error","name":"ERC20InvalidSpender","inputs":[{"name":"spender","type":"address","internalType":"address"}]},{"type":"error","name":"OnlyVault","inputs":[]}],"bytecode":{"object":"0x60a0604052346200036d5762000cd6803803806200001d8162000371565b9283398101906060818303126200036d5780516001600160401b0392908381116200036d57816200005091840162000397565b92602091828401518281116200036d576040916200007091860162000397565b930151936001600160a01b038516918286036200036d57815181811162000278576003908154906001948583811c9316801562000362575b888410146200034e578190601f93848111620002fb575b50889084831160011462000298575f926200028c575b50505f1982851b1c191690851b1782555b8651928311620002785760049687548581811c911680156200026d575b888210146200025a5782811162000212575b5086918411600114620001ab579383949184925f956200019f575b50501b925f19911b1c19161783555b156200016f57826080526040516108ce908162000408823960805181818160b70152818161018d01526103ea0152f35b60405162461bcd60e51b815291820152600a6024820152691e995c9bc81d985d5b1d60b21b604482015260649150fd5b015193505f8062000130565b9190601f19841692885f5284885f20945f5b8a89838310620001fa5750505010620001e0575b50505050811b0183556200013f565b01519060f8845f19921b161c191690555f808080620001d1565b868601518955909701969485019488935001620001bd565b885f52875f208380870160051c8201928a881062000250575b0160051c019086905b8281106200024457505062000115565b5f815501869062000234565b925081926200022b565b602289634e487b7160e01b5f525260245ffd5b90607f169062000103565b634e487b7160e01b5f52604160045260245ffd5b015190505f80620000d5565b90879350601f19831691865f528a5f20925f5b8c828210620002e45750508411620002cc575b505050811b018255620000e6565b01515f1983871b60f8161c191690555f8080620002be565b8385015186558b97909501949384019301620002ab565b909150845f52885f208480850160051c8201928b861062000344575b918991869594930160051c01915b82811062000335575050620000bf565b5f815585945089910162000325565b9250819262000317565b634e487b7160e01b5f52602260045260245ffd5b92607f1692620000a8565b5f80fd5b6040519190601f01601f191682016001600160401b038111838210176200027857604052565b919080601f840112156200036d5782516001600160401b0381116200027857602090620003cd601f8201601f1916830162000371565b928184528282870101116200036d575f5b818110620003f35750825f9394955001015290565b8581018301518482018401528201620003de56fe6080604090808252600480361015610015575f80fd5b5f3560e01c91826306fdde031461067357508163095ea7b3146105cb57816318160ddd146105ad57816323b872dd146104bb578163313ce567146104a057816340c10f19146103c157816370a082311461038b57816395d89b411461026c5781639dc29fac1461016357508063a9059cbb14610133578063dd62ed3e146100ea5763fbfa77cf146100a4575f80fd5b346100e6575f3660031901126100e657517f00000000000000000000000000000000000000000000000000000000000000006001600160a01b03168152602090f35b5f80fd5b50346100e657806003193601126100e657602090610106610792565b61010e6107a8565b9060018060a01b038091165f5260018452825f2091165f528252805f20549051908152f35b50346100e657806003193601126100e65760209061015c610152610792565b60243590336107be565b5160018152f35b82346100e657806003193601126100e65761017c610792565b602435929091906001600160a01b037f00000000000000000000000000000000000000000000000000000000000000008116330361025d57831692831561024757835f525f602052825f205491858310610213575f857fddf252ad1be2c89b69c2b068fc378daa952ba7f163c4a11628f55a4df523b3ef6020898881898688528785520381872055816002540360025551908152a3005b835163391434e360e21b81526001600160a01b03909216908201908152602081018390526040810186905281906060010390fd5b505f6024925191634b637e8f60e11b8352820152fd5b509051638d1af8bd60e01b8152fd5b82346100e6575f3660031901126100e6578051905f835460018160011c9060018316928315610381575b602093848410811461036e5783885290811561035257506001146102fe575b505050829003601f01601f191682019267ffffffffffffffff8411838510176102eb57508291826102e792528261074b565b0390f35b604190634e487b7160e01b5f525260245ffd5b5f878152929350837f8a35acfbc15ff81a39ae7d344fd709f28e8600b4aa8c65c6b64bfe7fe36bd19b5b83851061033e57505050508301018480806102b5565b805488860183015293019284908201610328565b60ff1916878501525050151560051b84010190508480806102b5565b602289634e487b7160e01b5f525260245ffd5b91607f1691610296565b82346100e65760203660031901126100e6576020906001600160a01b036103b0610792565b165f525f8252805f20549051908152f35b82346100e657806003193601126100e6576103da610792565b60243591906001600160a01b03907f000000000000000000000000000000000000000000000000000000000000000082163303610490571692831561047b576002549083820180921161046857505f927fddf252ad1be2c89b69c2b068fc378daa952ba7f163c4a11628f55a4df523b3ef9260209260025585855284835280852082815401905551908152a3005b601190634e487b7160e01b5f525260245ffd5b5f602492519163ec442f0560e01b8352820152fd5b8251638d1af8bd60e01b81528590fd5b82346100e6575f3660031901126100e6576020905160128152f35b9050346100e65760603660031901126100e6576104d6610792565b6104de6107a8565b906044359260018060a01b038216805f526001602052855f20335f52602052855f2054915f198310610519575b60208761015c8888886107be565b85831061058157811561056b57331561055557505f9081526001602090815286822033835281529086902091859003909155829061015c61050b565b6024905f885191634a1406b160e11b8352820152fd5b6024905f88519163e602df0560e01b8352820152fd5b8651637dc7a0d960e11b8152339181019182526020820193909352604081018690528291506060010390fd5b82346100e6575f3660031901126100e6576020906002549051908152f35b82346100e657806003193601126100e6576105e4610792565b60243590331561065d576001600160a01b03169081156106475760209350335f5260018452825f20825f52845280835f205582519081527f8c5be1e5ebec7d5bd14f71427d1e84f3dd0314c0f7b2291e5b200ac8c7c3b925843392a35160018152f35b8251634a1406b160e11b81525f81860152602490fd5b825163e602df0560e01b81525f81860152602490fd5b83346100e6575f3660031901126100e6575f60035460018160011c9060018316928315610741575b602093848410811461036e5783885290811561035257506001146106eb57505050829003601f01601f191682019267ffffffffffffffff8411838510176102eb57508291826102e792528261074b565b60035f908152929350837fc2575a0e9e593c00f959f8c92f12db2869c3395a3b0502d05e2516446f71f85b5b83851061072d57505050508301018480806102b5565b805488860183015293019284908201610717565b91607f169161069b565b602080825282518183018190529093925f5b82811061077e57505060409293505f838284010152601f8019910116010190565b81810186015184820160400152850161075d565b600435906001600160a01b03821682036100e657565b602435906001600160a01b03821682036100e657565b916001600160a01b03808416928315610880571692831561086857825f525f60205260405f2054908282106108365750817fddf252ad1be2c89b69c2b068fc378daa952ba7f163c4a11628f55a4df523b3ef92602092855f525f84520360405f2055845f5260405f20818154019055604051908152a3565b60405163391434e360e21b81526001600160a01b03919091166004820152602481019190915260448101829052606490fd5b60405163ec442f0560e01b81525f6004820152602490fd5b604051634b637e8f60e11b81525f6004820152602490fdfea2646970667358221220353c5956c64ae2b357d7d4b8f358268076f76e415d22ec9aa68400d60fc4217c64736f6c63430008180033","linkReferences":{}},"methodIdentifiers":{"allowance(address,address)":"dd62ed3e","approve(address,uint256)":"095ea7b3","balanceOf(address)":"70a08231","burn(address,uint256)":"9dc29fac","decimals()":"313ce567","mint(address,uint256)":"40c10f19","name()":"06fdde03","symbol()":"95d89b41","totalSupply()":"18160ddd","transfer(address,uint256)":"a9059cbb","transferFrom(address,address,uint256)":"23b872dd","vault()":"fbfa77cf"},"id":49}