{"abi":[{"type":"constructor","inputs":[{"name":"_usdc","type":"address","internalType":"address"},{"name":"_usdat","type":"address","internalType":"address"},{"name":"_sUsdat","type":"address","internalType":"address"},{"name":"_strcOracle","type":"address","internalType":"address"},{"name":"_lendingAdapter","type":"address","internalType":"address"},{"name":"_curvePool","type":"address","internalType":"address"},{"name":"_admin","type":"address","internalType":"address"},{"name":"_keeper","type":"address","internalType":"address"}],"stateMutability":"nonpayable"},{"type":"function","name":"BORROW_DELEVERAGE","inputs":[],"outputs":[{"name":"","type":"uint256","internalType":"uint256"}],"stateMutability":"view"},{"type":"function","name":"BORROW_EMERGENCY","inputs":[],"outputs":[{"name":"","type":"uint256","internalType":"uint256"}],"stateMutability":"view"},{"type":"function","name":"BORROW_FREEZE","inputs":[],"outputs":[{"name":"","type":"uint256","internalType":"uint256"}],"stateMutability":"view"},{"type":"function","name":"BUNKER_CAP","inputs":[],"outputs":[{"name":"","type":"uint256","internalType":"uint256"}],"stateMutability":"view"},{"type":"function","name":"BUNKER_THRESHOLD","inputs":[],"outputs":[{"name":"","type":"uint256","internalType":"uint256"}],"stateMutability":"view"},{"type":"function","name":"DEFAULT_ADMIN_ROLE","inputs":[],"outputs":[{"name":"","type":"bytes32","internalType":"bytes32"}],"stateMutability":"view"},{"type":"function","name":"DEFAULT_BORROW","inputs":[],"outputs":[{"name":"","type":"uint256","internalType":"uint256"}],"stateMutability":"view"},{"type":"function","name":"EPOCHS_PER_YEAR","inputs":[],"outputs":[{"name":"","type":"uint256","internalType":"uint256"}],"stateMutability":"view"},{"type":"function","name":"EPOCH_SECONDS","inputs":[],"outputs":[{"name":"","type":"uint256","internalType":"uint256"}],"stateMutability":"view"},{"type":"function","name":"GUARDIAN_ROLE","inputs":[],"outputs":[{"name":"","type":"bytes32","internalType":"bytes32"}],"stateMutability":"view"},{"type":"function","name":"HF_ACCELERATE","inputs":[],"outputs":[{"name":"","type":"uint256","internalType":"uint256"}],"stateMutability":"view"},{"type":"function","name":"HF_DELEVERAGE","inputs":[],"outputs":[{"name":"","type":"uint256","internalType":"uint256"}],"stateMutability":"view"},{"type":"function","name":"HF_EMERGENCY","inputs":[],"outputs":[{"name":"","type":"uint256","internalType":"uint256"}],"stateMutability":"view"},{"type":"function","name":"HF_FREEZE","inputs":[],"outputs":[{"name":"","type":"uint256","internalType":"uint256"}],"stateMutability":"view"},{"type":"function","name":"HF_TARGET","inputs":[],"outputs":[{"name":"","type":"uint256","internalType":"uint256"}],"stateMutability":"view"},{"type":"function","name":"JR_MGMT_FEE","inputs":[],"outputs":[{"name":"","type":"uint256","internalType":"uint256"}],"stateMutability":"view"},{"type":"function","name":"JR_PERF_FEE","inputs":[],"outputs":[{"name":"","type":"uint256","internalType":"uint256"}],"stateMutability":"view"},{"type":"function","name":"KEEPER_ROLE","inputs":[],"outputs":[{"name":"","type":"bytes32","internalType":"bytes32"}],"stateMutability":"view"},{"type":"function","name":"LEV_MAX","inputs":[],"outputs":[{"name":"","type":"uint256","internalType":"uint256"}],"stateMutability":"view"},{"type":"function","name":"LEV_MIN","inputs":[],"outputs":[{"name":"","type":"uint256","internalType":"uint256"}],"stateMutability":"view"},{"type":"function","name":"LEV_RELEV_CAP","inputs":[],"outputs":[{"name":"","type":"uint256","internalType":"uint256"}],"stateMutability":"view"},{"type":"function","name":"ORACLE_DEVIATION_MAX","inputs":[],"outputs":[{"name":"","type":"uint256","internalType":"uint256"}],"stateMutability":"view"},{"type":"function","name":"RATIO_MAX","inputs":[],"outputs":[{"name":"","type":"uint256","internalType":"uint256"}],"stateMutability":"view"},{"type":"function","name":"RATIO_MIN","inputs":[],"outputs":[{"name":"","type":"uint256","internalType":"uint256"}],"stateMutability":"view"},{"type":"function","name":"RATIO_TARGET","inputs":[],"outputs":[{"name":"","type":"uint256","internalType":"uint256"}],"stateMutability":"view"},{"type":"function","name":"RESERVE_TARGET","inputs":[],"outputs":[{"name":"","type":"uint256","internalType":"uint256"}],"stateMutability":"view"},{"type":"function","name":"SR_GROSS_APY","inputs":[],"outputs":[{"name":"","type":"uint256","internalType":"uint256"}],"stateMutability":"view"},{"type":"function","name":"SR_MGMT_FEE","inputs":[],"outputs":[{"name":"","type":"uint256","internalType":"uint256"}],"stateMutability":"view"},{"type":"function","name":"SUSDAT_YIELD","inputs":[],"outputs":[{"name":"","type":"uint256","internalType":"uint256"}],"stateMutability":"view"},{"type":"function","name":"TARGET_LEVERAGE","inputs":[],"outputs":[{"name":"","type":"uint256","internalType":"uint256"}],"stateMutability":"view"},{"type":"function","name":"TIMELOCK_DELAY","inputs":[],"outputs":[{"name":"","type":"uint256","internalType":"uint256"}],"stateMutability":"view"},{"type":"function","name":"WITHDRAWAL_CAP","inputs":[],"outputs":[{"name":"","type":"uint256","internalType":"uint256"}],"stateMutability":"view"},{"type":"function","name":"accruedFees","inputs":[],"outputs":[{"name":"","type":"uint256","internalType":"uint256"}],"stateMutability":"view"},{"type":"function","name":"bunkerMode","inputs":[],"outputs":[{"name":"","type":"bool","internalType":"bool"}],"stateMutability":"view"},{"type":"function","name":"canSettle","inputs":[],"outputs":[{"name":"","type":"bool","internalType":"bool"}],"stateMutability":"view"},{"type":"function","name":"checkHealthFactor","inputs":[],"outputs":[],"stateMutability":"nonpayable"},{"type":"function","name":"claimDeposit","inputs":[{"name":"requestId","type":"uint256","internalType":"uint256"}],"outputs":[],"stateMutability":"nonpayable"},{"type":"function","name":"claimWithdrawal","inputs":[{"name":"requestId","type":"uint256","internalType":"uint256"}],"outputs":[],"stateMutability":"nonpayable"},{"type":"function","name":"currentEpoch","inputs":[],"outputs":[{"name":"","type":"uint256","internalType":"uint256"}],"stateMutability":"view"},{"type":"function","name":"currentLeverage","inputs":[],"outputs":[{"name":"","type":"uint256","internalType":"uint256"}],"stateMutability":"view"},{"type":"function","name":"currentRatio","inputs":[],"outputs":[{"name":"","type":"uint256","internalType":"uint256"}],"stateMutability":"view"},{"type":"function","name":"curvePool","inputs":[],"outputs":[{"name":"","type":"address","internalType":"contract ICurvePool"}],"stateMutability":"view"},{"type":"function","name":"depositJunior","inputs":[{"name":"assets","type":"uint256","internalType":"uint256"}],"outputs":[{"name":"shares","type":"uint256","internalType":"uint256"}],"stateMutability":"nonpayable"},{"type":"function","name":"depositRequests","inputs":[{"name":"","type":"uint256","internalType":"uint256"}],"outputs":[{"name":"user","type":"address","internalType":"address"},{"name":"isSenior","type":"bool","internalType":"bool"},{"name":"assets","type":"uint256","internalType":"uint256"},{"name":"epoch","type":"uint256","internalType":"uint256"},{"name":"processed","type":"bool","internalType":"bool"},{"name":"shares","type":"uint256","internalType":"uint256"}],"stateMutability":"view"},{"type":"function","name":"depositSenior","inputs":[{"name":"assets","type":"uint256","internalType":"uint256"}],"outputs":[{"name":"shares","type":"uint256","internalType":"uint256"}],"stateMutability":"nonpayable"},{"type":"function","name":"emergencyClaim","inputs":[{"name":"isSenior","type":"bool","internalType":"bool"}],"outputs":[],"stateMutability":"nonpayable"},{"type":"function","name":"emergencyShutdown","inputs":[],"outputs":[],"stateMutability":"nonpayable"},{"type":"function","name":"executeSetCurvePool","inputs":[{"name":"id","type":"uint256","internalType":"uint256"},{"name":"pool","type":"address","internalType":"address"}],"outputs":[],"stateMutability":"nonpayable"},{"type":"function","name":"executeSetLendingAdapter","inputs":[{"name":"id","type":"uint256","internalType":"uint256"},{"name":"adapter","type":"address","internalType":"address"}],"outputs":[],"stateMutability":"nonpayable"},{"type":"function","name":"getBorrowRate","inputs":[],"outputs":[{"name":"","type":"uint256","internalType":"uint256"}],"stateMutability":"view"},{"type":"function","name":"getHealthFactor","inputs":[],"outputs":[{"name":"","type":"uint256","internalType":"uint256"}],"stateMutability":"view"},{"type":"function","name":"getPosition","inputs":[],"outputs":[{"name":"collateral","type":"uint256","internalType":"uint256"},{"name":"debt","type":"uint256","internalType":"uint256"},{"name":"hf","type":"uint256","internalType":"uint256"}],"stateMutability":"view"},{"type":"function","name":"getRoleAdmin","inputs":[{"name":"role","type":"bytes32","internalType":"bytes32"}],"outputs":[{"name":"","type":"bytes32","internalType":"bytes32"}],"stateMutability":"view"},{"type":"function","name":"grantRole","inputs":[{"name":"role","type":"bytes32","internalType":"bytes32"},{"name":"account","type":"address","internalType":"address"}],"outputs":[],"stateMutability":"nonpayable"},{"type":"function","name":"hasRole","inputs":[{"name":"role","type":"bytes32","internalType":"bytes32"},{"name":"account","type":"address","internalType":"address"}],"outputs":[{"name":"","type":"bool","internalType":"bool"}],"stateMutability":"view"},{"type":"function","name":"isShutdown","inputs":[],"outputs":[{"name":"","type":"bool","internalType":"bool"}],"stateMutability":"view"},{"type":"function","name":"juniorNAV","inputs":[],"outputs":[{"name":"","type":"uint256","internalType":"uint256"}],"stateMutability":"view"},{"type":"function","name":"juniorSharePrice","inputs":[],"outputs":[{"name":"","type":"uint256","internalType":"uint256"}],"stateMutability":"view"},{"type":"function","name":"lastEpochTimestamp","inputs":[],"outputs":[{"name":"","type":"uint256","internalType":"uint256"}],"stateMutability":"view"},{"type":"function","name":"lastProcessedDepositId","inputs":[],"outputs":[{"name":"","type":"uint256","internalType":"uint256"}],"stateMutability":"view"},{"type":"function","name":"lastProcessedWithdrawalId","inputs":[],"outputs":[{"name":"","type":"uint256","internalType":"uint256"}],"stateMutability":"view"},{"type":"function","name":"lendingAdapter","inputs":[],"outputs":[{"name":"","type":"address","internalType":"contract ILendingAdapter"}],"stateMutability":"view"},{"type":"function","name":"nextDepositRequestId","inputs":[],"outputs":[{"name":"","type":"uint256","internalType":"uint256"}],"stateMutability":"view"},{"type":"function","name":"nextRequestId","inputs":[],"outputs":[{"name":"","type":"uint256","internalType":"uint256"}],"stateMutability":"view"},{"type":"function","name":"nextTimelockId","inputs":[],"outputs":[{"name":"","type":"uint256","internalType":"uint256"}],"stateMutability":"view"},{"type":"function","name":"oracleCircuitBroken","inputs":[],"outputs":[{"name":"","type":"bool","internalType":"bool"}],"stateMutability":"view"},{"type":"function","name":"pause","inputs":[],"outputs":[],"stateMutability":"nonpayable"},{"type":"function","name":"paused","inputs":[],"outputs":[{"name":"","type":"bool","internalType":"bool"}],"stateMutability":"view"},{"type":"function","name":"pendingDeposits","inputs":[],"outputs":[{"name":"","type":"uint256","internalType":"uint256"}],"stateMutability":"view"},{"type":"function","name":"pendingJuniorDeposits","inputs":[],"outputs":[{"name":"","type":"uint256","internalType":"uint256"}],"stateMutability":"view"},{"type":"function","name":"pendingSeniorDeposits","inputs":[],"outputs":[{"name":"","type":"uint256","internalType":"uint256"}],"stateMutability":"view"},{"type":"function","name":"queueSetCurvePool","inputs":[{"name":"pool","type":"address","internalType":"address"}],"outputs":[{"name":"id","type":"uint256","internalType":"uint256"}],"stateMutability":"nonpayable"},{"type":"function","name":"queueSetLendingAdapter","inputs":[{"name":"adapter","type":"address","internalType":"address"}],"outputs":[{"name":"id","type":"uint256","internalType":"uint256"}],"stateMutability":"nonpayable"},{"type":"function","name":"queuedJuniorShares","inputs":[],"outputs":[{"name":"","type":"uint256","internalType":"uint256"}],"stateMutability":"view"},{"type":"function","name":"queuedSeniorShares","inputs":[],"outputs":[{"name":"","type":"uint256","internalType":"uint256"}],"stateMutability":"view"},{"type":"function","name":"renounceRole","inputs":[{"name":"role","type":"bytes32","internalType":"bytes32"},{"name":"callerConfirmation","type":"address","internalType":"address"}],"outputs":[],"stateMutability":"nonpayable"},{"type":"function","name":"requestDeposit","inputs":[{"name":"assets","type":"uint256","internalType":"uint256"},{"name":"isSenior","type":"bool","internalType":"bool"}],"outputs":[{"name":"requestId","type":"uint256","internalType":"uint256"}],"stateMutability":"nonpayable"},{"type":"function","name":"requestRedeem","inputs":[{"name":"shares","type":"uint256","internalType":"uint256"},{"name":"isSenior","type":"bool","internalType":"bool"}],"outputs":[{"name":"requestId","type":"uint256","internalType":"uint256"}],"stateMutability":"nonpayable"},{"type":"function","name":"revokeRole","inputs":[{"name":"role","type":"bytes32","internalType":"bytes32"},{"name":"account","type":"address","internalType":"address"}],"outputs":[],"stateMutability":"nonpayable"},{"type":"function","name":"sUsdat","inputs":[],"outputs":[{"name":"","type":"address","internalType":"contract IStakedUSDat"}],"stateMutability":"view"},{"type":"function","name":"sdcJunior","inputs":[],"outputs":[{"name":"","type":"address","internalType":"contract TrancheToken"}],"stateMutability":"view"},{"type":"function","name":"sdcSenior","inputs":[],"outputs":[{"name":"","type":"address","internalType":"contract TrancheToken"}],"stateMutability":"view"},{"type":"function","name":"seniorNAV","inputs":[],"outputs":[{"name":"","type":"uint256","internalType":"uint256"}],"stateMutability":"view"},{"type":"function","name":"seniorSharePrice","inputs":[],"outputs":[{"name":"","type":"uint256","internalType":"uint256"}],"stateMutability":"view"},{"type":"function","name":"setTVLCap","inputs":[{"name":"cap","type":"uint256","internalType":"uint256"}],"outputs":[],"stateMutability":"nonpayable"},{"type":"function","name":"settleEpoch","inputs":[{"name":"signals","type":"tuple","internalType":"struct TrancheFiVault.SignalData","components":[{"name":"borrowRate","type":"uint256","internalType":"uint256"},{"name":"strcPrice","type":"uint256","internalType":"uint256"},{"name":"prevStrcPrice","type":"uint256","internalType":"uint256"}]}],"outputs":[],"stateMutability":"nonpayable"},{"type":"function","name":"strcOracle","inputs":[],"outputs":[{"name":"","type":"address","internalType":"contract IStrcPriceOracle"}],"stateMutability":"view"},{"type":"function","name":"supportsInterface","inputs":[{"name":"interfaceId","type":"bytes4","internalType":"bytes4"}],"outputs":[{"name":"","type":"bool","internalType":"bool"}],"stateMutability":"view"},{"type":"function","name":"timelockRequests","inputs":[{"name":"","type":"uint256","internalType":"uint256"}],"outputs":[{"name":"actionHash","type":"bytes32","internalType":"bytes32"},{"name":"executeAfter","type":"uint256","internalType":"uint256"},{"name":"executed","type":"bool","internalType":"bool"}],"stateMutability":"view"},{"type":"function","name":"tvl","inputs":[],"outputs":[{"name":"","type":"uint256","internalType":"uint256"}],"stateMutability":"view"},{"type":"function","name":"tvlCap","inputs":[],"outputs":[{"name":"","type":"uint256","internalType":"uint256"}],"stateMutability":"view"},{"type":"function","name":"unpause","inputs":[],"outputs":[],"stateMutability":"nonpayable"},{"type":"function","name":"usdatToken","inputs":[],"outputs":[{"name":"","type":"address","internalType":"contract IERC20"}],"stateMutability":"view"},{"type":"function","name":"usdc","inputs":[],"outputs":[{"name":"","type":"address","internalType":"contract IERC20"}],"stateMutability":"view"},{"type":"function","name":"usdcReserve","inputs":[],"outputs":[{"name":"","type":"uint256","internalType":"uint256"}],"stateMutability":"view"},{"type":"function","name":"withdrawFees","inputs":[{"name":"to","type":"address","internalType":"address"}],"outputs":[],"stateMutability":"nonpayable"},{"type":"function","name":"withdrawalRequests","inputs":[{"name":"","type":"uint256","internalType":"uint256"}],"outputs":[{"name":"user","type":"address","internalType":"address"},{"name":"isSenior","type":"bool","internalType":"bool"},{"name":"shares","type":"uint256","internalType":"uint256"},{"name":"epoch","type":"uint256","internalType":"uint256"},{"name":"fulfilled","type":"bool","internalType":"bool"},{"name":"usdcAmount","type":"uint256","internalType":"uint256"}],"stateMutability":"view"},{"type":"event","name":"BunkerModeActivated","inputs":[{"name":"epoch","type":"uint256","indexed":false,"internalType":"uint256"}],"anonymous":false},{"type":"event","name":"BunkerModeDeactivated","inputs":[{"name":"epoch","type":"uint256","indexed":false,"internalType":"uint256"}],"anonymous":false},{"type":"event","name":"DepositClaimed","inputs":[{"name":"user","type":"address","indexed":true,"internalType":"address"},{"name":"requestId","type":"uint256","indexed":true,"internalType":"uint256"},{"name":"shares","type":"uint256","indexed":false,"internalType":"uint256"}],"anonymous":false},{"type":"event","name":"DepositProcessed","inputs":[{"name":"requestId","type":"uint256","indexed":true,"internalType":"uint256"},{"name":"shares","type":"uint256","indexed":false,"internalType":"uint256"}],"anonymous":false},{"type":"event","name":"DepositRequested","inputs":[{"name":"user","type":"address","indexed":true,"internalType":"address"},{"name":"isSenior","type":"bool","indexed":true,"internalType":"bool"},{"name":"assets","type":"uint256","indexed":false,"internalType":"uint256"},{"name":"requestId","type":"uint256","indexed":false,"internalType":"uint256"}],"anonymous":false},{"type":"event","name":"Deposited","inputs":[{"name":"user","type":"address","indexed":true,"internalType":"address"},{"name":"isSenior","type":"bool","indexed":true,"internalType":"bool"},{"name":"assets","type":"uint256","indexed":false,"internalType":"uint256"},{"name":"shares","type":"uint256","indexed":false,"internalType":"uint256"}],"anonymous":false},{"type":"event","name":"EmergencyClaim","inputs":[{"name":"user","type":"address","indexed":true,"internalType":"address"},{"name":"isSenior","type":"bool","indexed":true,"internalType":"bool"},{"name":"usdcAmount","type":"uint256","indexed":false,"internalType":"uint256"}],"anonymous":false},{"type":"event","name":"EmergencyDeleveraged","inputs":[{"name":"healthFactor","type":"uint256","indexed":false,"internalType":"uint256"},{"name":"newLeverage","type":"uint256","indexed":false,"internalType":"uint256"}],"anonymous":false},{"type":"event","name":"EmergencyShutdown","inputs":[{"name":"timestamp","type":"uint256","indexed":false,"internalType":"uint256"}],"anonymous":false},{"type":"event","name":"EpochSettled","inputs":[{"name":"epoch","type":"uint256","indexed":true,"internalType":"uint256"},{"name":"seniorNAV","type":"uint256","indexed":false,"internalType":"uint256"},{"name":"juniorNAV","type":"uint256","indexed":false,"internalType":"uint256"},{"name":"leverage","type":"uint256","indexed":false,"internalType":"uint256"},{"name":"healthFactor","type":"uint256","indexed":false,"internalType":"uint256"}],"anonymous":false},{"type":"event","name":"LeverageAdjusted","inputs":[{"name":"oldLev","type":"uint256","indexed":false,"internalType":"uint256"},{"name":"newLev","type":"uint256","indexed":false,"internalType":"uint256"},{"name":"collateral","type":"uint256","indexed":false,"internalType":"uint256"},{"name":"debt","type":"uint256","indexed":false,"internalType":"uint256"}],"anonymous":false},{"type":"event","name":"OracleCircuitBroken","inputs":[{"name":"saturnPrice","type":"uint256","indexed":false,"internalType":"uint256"},{"name":"curvePrice","type":"uint256","indexed":false,"internalType":"uint256"}],"anonymous":false},{"type":"event","name":"Paused","inputs":[{"name":"account","type":"address","indexed":false,"internalType":"address"}],"anonymous":false},{"type":"event","name":"RoleAdminChanged","inputs":[{"name":"role","type":"bytes32","indexed":true,"internalType":"bytes32"},{"name":"previousAdminRole","type":"bytes32","indexed":true,"internalType":"bytes32"},{"name":"newAdminRole","type":"bytes32","indexed":true,"internalType":"bytes32"}],"anonymous":false},{"type":"event","name":"RoleGranted","inputs":[{"name":"role","type":"bytes32","indexed":true,"internalType":"bytes32"},{"name":"account","type":"address","indexed":true,"internalType":"address"},{"name":"sender","type":"address","indexed":true,"internalType":"address"}],"anonymous":false},{"type":"event","name":"RoleRevoked","inputs":[{"name":"role","type":"bytes32","indexed":true,"internalType":"bytes32"},{"name":"account","type":"address","indexed":true,"internalType":"address"},{"name":"sender","type":"address","indexed":true,"internalType":"address"}],"anonymous":false},{"type":"event","name":"TimelockExecuted","inputs":[{"name":"id","type":"uint256","indexed":true,"internalType":"uint256"}],"anonymous":false},{"type":"event","name":"TimelockQueued","inputs":[{"name":"id","type":"uint256","indexed":true,"internalType":"uint256"},{"name":"actionHash","type":"bytes32","indexed":false,"internalType":"bytes32"},{"name":"executeAfter","type":"uint256","indexed":false,"internalType":"uint256"}],"anonymous":false},{"type":"event","name":"Unpaused","inputs":[{"name":"account","type":"address","indexed":false,"internalType":"address"}],"anonymous":false},{"type":"event","name":"WaterfallExecuted","inputs":[{"name":"epoch","type":"uint256","indexed":true,"internalType":"uint256"},{"name":"result","type":"tuple","indexed":false,"internalType":"struct TrancheFiVault.WaterfallResult","components":[{"name":"poolIncome","type":"uint256","internalType":"uint256"},{"name":"poolMTM","type":"int256","internalType":"int256"},{"name":"seniorCoupon","type":"uint256","internalType":"uint256"},{"name":"seniorMgmtFee","type":"uint256","internalType":"uint256"},{"name":"juniorMgmtFee","type":"uint256","internalType":"uint256"},{"name":"perfFee","type":"uint256","internalType":"uint256"},{"name":"juniorNetDelta","type":"int256","internalType":"int256"},{"name":"seniorImpairment","type":"uint256","internalType":"uint256"}]}],"anonymous":false},{"type":"event","name":"WithdrawalClaimed","inputs":[{"name":"user","type":"address","indexed":true,"internalType":"address"},{"name":"requestId","type":"uint256","indexed":true,"internalType":"uint256"},{"name":"usdcAmount","type":"uint256","indexed":false,"internalType":"uint256"}],"anonymous":false},{"type":"event","name":"WithdrawalFulfilled","inputs":[{"name":"requestId","type":"uint256","indexed":true,"internalType":"uint256"},{"name":"usdcAmount","type":"uint256","indexed":false,"internalType":"uint256"}],"anonymous":false},{"type":"event","name":"WithdrawalRequested","inputs":[{"name":"user","type":"address","indexed":true,"internalType":"address"},{"name":"isSenior","type":"bool","indexed":true,"internalType":"bool"},{"name":"shares","type":"uint256","indexed":false,"internalType":"uint256"},{"name":"requestId","type":"uint256","indexed":false,"internalType":"uint256"}],"anonymous":false},{"type":"error","name":"AccessControlBadConfirmation","inputs":[]},{"type":"error","name":"AccessControlUnauthorizedAccount","inputs":[{"name":"account","type":"address","internalType":"address"},{"name":"neededRole","type":"bytes32","internalType":"bytes32"}]},{"type":"error","name":"DepositAlreadyClaimed","inputs":[]},{"type":"error","name":"DepositNotProcessed","inputs":[]},{"type":"error","name":"EnforcedPause","inputs":[]},{"type":"error","name":"EpochTooSoon","inputs":[]},{"type":"error","name":"ExpectedPause","inputs":[]},{"type":"error","name":"InsufficientShares","inputs":[]},{"type":"error","name":"NotRequestOwner","inputs":[]},{"type":"error","name":"NotShutdown","inputs":[]},{"type":"error","name":"OracleDeviation","inputs":[]},{"type":"error","name":"RatioBroken","inputs":[]},{"type":"error","name":"ReentrancyGuardReentrantCall","inputs":[]},{"type":"error","name":"RequestAlreadyClaimed","inputs":[]},{"type":"error","name":"RequestNotFulfilled","inputs":[]},{"type":"error","name":"SafeERC20FailedOperation","inputs":[{"name":"token","type":"address","internalType":"address"}]},{"type":"error","name":"TVLCapExceeded","inputs":[]},{"type":"error","name":"VaultShutdown","inputs":[]},{"type":"error","name":"ZeroAmount","inputs":[]}],"bytecode":{"object":"0x610140346200041757620079a66001600160401b03601f38839003908101601f191684019082821185831017620003e1578085946040938452853961010093849181010312620004175762000054846200041b565b9362000063602082016200041b565b92620000718383016200041b565b9362000080606084016200041b565b6200008e608085016200041b565b60a0986200009e8a87016200041b565b92620000bb60e0620000b360c08a016200041b565b98016200041b565b60017f9b779b17422d0df92223018b32b4d1fa46e071723d6817e2486d003becc55f0055986001600160a01b039586938416918491908290841515806200040b575b620001089062000430565b169283151580620003ff575b6200011f9062000430565b608052168c5260c0521660e05260018054610100600160a81b03191660089290921b610100600160a81b0316919091179055600280546001600160a01b031916929091169190911790558251610cd6908181019083821181831017620003e15760e08162006c90938585833960608152601060608201526f2a3930b731b432a3349029b2b734b7b960811b60808201528b602082015260098c8201526839b231a9a2a724a7a960b91b60c082015230898201520301905ff08015620003f557875284519282840190811184821017620003e15760e0928492833960608152601060608201526f2a3930b731b432a33490253ab734b7b960811b60808201528860208201526009898201526839b231a52aa724a7a960b91b60c082015230868201520301905ff0928315620003d757906200026f6200027692610120958652620002688362000469565b50620004d9565b5062000579565b506718493fba64ef000060075542600955519161667c93846200061485396080518481816106b101528181610c740152818161224f0152818161282b01528181612aa701528181612bb5015281816132c80152818161567e01528181615c0c0152818161629e015261646401525183613162015260c051838181610f89015281816133e90152818161470301528181614a3801528181614d78015261639c015260e05183818161113501526131d2015251828181610e6e015281816112d00152818161240a015281816125ec0152818161288301528181612b1901528181612dfe01528181613980015281816151c80152818161530c015281816153c40152818161541d0152615dc5015251818181610ccd015281816115ac01528181611e8f015281816124cb015281816127ab01528181612dc50152818161367601528181615225015281816158af0152818161595f015281816159b80152615e260152f35b82513d5f823e3d90fd5b634e487b7160e01b5f52604160045260245ffd5b85513d5f823e3d90fd5b50848316151562000114565b508282161515620000fd565b5f80fd5b51906001600160a01b03821682036200041757565b156200043857565b60405162461bcd60e51b81526020600482015260096024820152683d32b9379030b2323960b91b6044820152606490fd5b6001600160a01b03165f8181525f8051602062007986833981519152602052604090205460ff16620004d4575f8181525f805160206200798683398151915260205260408120805460ff191660011790553391905f80516020620079668339815191528180a4600190565b505f90565b6001600160a01b03165f8181527f0363fc6b1c9d3a5e0ab0c2ddc08deb0f30108829db06e84f370d2858ffe78c4660205260409020547ffc8737ab85eb45125971625a9ebdb75cc78e01d5c1fa80c4c6e5203f47bc4fab919060ff166200057357815f525f60205260405f20815f5260205260405f20600160ff1982541617905533915f80516020620079668339815191525f80a4600190565b50505f90565b6001600160a01b03165f8181527f8a40f0b47fdc2a0ce293b772acfc7508c8315a4d462786c1adc3a56f92ca2d0560205260409020547f55435dd261a4b9b3364963f7738a7a662ad9c84396d64be3365284bb7f0a5041919060ff166200057357815f525f60205260405f20815f5260205260405f20600160ff1982541617905533915f80516020620079668339815191525f80a460019056fe6080806040526004361015610012575f80fd5b5f905f3560e01c90816301564483146134905750806301ffc9a71461343a57806304353f9b1461341857806304355529146133d45780631087abe1146133b257806311ce5a8514610aea5780631587a90c14613395578063164e68de1461328f5780631d16b9c414610c125780631dc7fc4b1461326d5780631dec15c61461324b5780631e5bcf9f14613229578063218751b21461320157806322a45bd2146131bd578063248a9ca31461319157806324b19bc51461314d57806324ea54f41461311357806327996502146130f157806328e0e631146130cf5780632c9704f8146130ae5780632e2e542c14610aea5780632f2ff15d146130725780632f8ba9a4146130555780633003867f146120f0578063310258e31461303b5780633403c2fc14612f9f578063364bc15a14612f6557806336568abe14612f1c578063368f7a301461046e57806336cc368214612ed65780633713b5d114612eb55780633721cc7d14612ad65780633e413bee14612a915780633f23fa1a14612a735780633f4ba83a14612a08578063488bc134146129ea57806349174834146129bd5780634e43773e146127cf57806350f9c245146125b75780635262265a14612576578063567419c1146125995780635abac3b61461257b5780635ba1c1a9146125765780635c074f44146125585780635c975abb146125355780635de65921146125125780635f8534ae1461239c578063609e1e18146121ed5780636764754c146121cf578063682c2058146121b15780636a1b7336146121545780636a5809cc146121365780636a84a985146121185780636ae8483b146120f5578063719bab04146120f05780637398ab1814611fb95780637638cdf014611efa5780637667180814611edc5780637e6ee29c14611ebe5780638289db5614611e795780638339c3bf14610eb8578063834f033014610f175780638456cb5914610ebd578063866fd03214610eb85780638828188014610e9d5780638d7debbf14610e585780638d97f3cb14610c1757806390ed479314610c1257806391d1485414610bc9578063937b258114610b4e5780639518852b14610b3057806396cc945a14610b0d5780639b78813f14610aef5780639e579e7714610aea578063a217fddf14610ace578063a5f352b714610a7c578063ae9e538014610a58578063b131da4014610a3d578063ba1c5e80146109a7578063bf86d69014610984578063c2fad3fa14610961578063c85ab79314610943578063c9e0706c14610927578063ca169fed14610905578063d547741f146108c4578063ddbc0103146108a1578063e5328e0614610877578063e959304f14610859578063f1b380141461078c578063f5b0905d14610769578063f64fc6471461074b578063f844443614610654578063fabd0341146105d9578063faf7ba6a14610588578063fcd244bb14610473578063fd3a447f1461046e5763ff28653314610449575f80fd5b3461046b578060031936011261046b57602060405167016fb4b39e40c0008152f35b80fd5b613541565b503461046b576020908160031936011261046b5761048f6134d2565b90610498613be4565b6104ac6001600160a01b03831615156137dc565b600454916104b983613757565b6004556040516104de816104d087820194856138d1565b03601f198101835282613611565b5190209062093a804201908142116105745783927fc5d0ff6db2160163985b57df2e7c64b15780c1d71296fbca2974ba3ec10291cd92610562604093600289865192610529846135f5565b86845287828501918783526003828701948286528d835252209351845551600184015551151591019060ff801983541691151516179055565b825191825286820152a2604051908152f35b634e487b7160e01b81526011600452602490fd5b503461046b578060031936011261046b576009549062093a808201918281116105c55762092c700191821161057457602082604051904210158152f35b634e487b7160e01b82526011600452602482fd5b503461046b57602036600319011261046b57600480358252601560209081526040928390208054600182015460028301546003840154939095015486516001600160a01b038416815260ff60a094851c811615159682019690965296870191909152606086019490945291161515608084015282015260c090f35b503461046b57602036600319011261046b576004356106716145c8565b80825260116020526040822080546001600160a01b031633036107395760ff60038201541615610727576004018054908115610715578390556106d581337f0000000000000000000000000000000000000000000000000000000000000000613d2f565b6040519081527f2d43eb174787155132b52ddb6b346e2dca99302eac3df4466dbeff953d3c84d160203392a360015f805160206166278339815191525580f35b6040516354e19feb60e01b8152600490fd5b6040516344b3cf6360e11b8152600490fd5b60405163517907dd60e01b8152600490fd5b503461046b578060031936011261046b576020600954604051908152f35b503461046b578060031936011261046b576020604051670de0b6b3a76400008152f35b503461046b57604036600319011261046b576004356107a96134e8565b6107b1613be4565b818352600360205260408320600160028201916108068354916107d760ff84161561384f565b6107e68482015442101561388e565b5460405160208101906107fd816104d08a85613814565b51902014613907565b60ff191617905560018054610100600160a81b03191660089290921b610100600160a81b03169190911790557fea04ffa82aa57b7937fa7fd295d8adaf45ec23d1bafdfafc3878cba7a4a29f758280a280f35b503461046b578060031936011261046b576020600454604051908152f35b503461046b578060031936011261046b57602061089960055460065490613633565b604051908152f35b503461046b578060031936011261046b57602060405167012dfb0cb5e880008152f35b503461046b57604036600319011261046b576109016004356108e46134e8565b90808452836020526108fc6001604086200154613d0e565b614556565b5080f35b503461046b578060031936011261046b57602060405166f8b0a10e4700008152f35b503461046b578060031936011261046b57602060405160348152f35b503461046b578060031936011261046b576020600754604051908152f35b503461046b578060031936011261046b576020604051670f43fc2c04ee00008152f35b503461046b578060031936011261046b57602060ff600b54166040519015158152f35b503461046b578060031936011261046b576001546040516317178a6560e11b815291906020908390600490829060081c6001600160a01b03165afa908115610a3157906109fa575b602090604051908152f35b506020813d602011610a29575b81610a1460209383613611565b81010312610a2557602090516109ef565b5f80fd5b3d9150610a07565b604051903d90823e3d90fd5b503461046b578060031936011261046b576020610899613bb8565b503461046b578060031936011261046b57610a71613cb3565b610a796139fd565b80f35b503461046b578060031936011261046b576001546040516322841f0160e01b815291906020908390600490829060081c6001600160a01b03165afa908115610a3157906109fa57602090604051908152f35b503461046b578060031936011261046b57602090604051908152f35b6134b0565b503461046b578060031936011261046b576020601a54604051908152f35b503461046b578060031936011261046b57602060ff600f54166040519015158152f35b503461046b578060031936011261046b576020601854604051908152f35b503461046b57602036600319011261046b57600480358252601160209081526040928390208054600182015460028301546003840154939095015486516001600160a01b038416815260ff60a094851c811615159682019690965296870191909152606086019490945291161515608084015282015260c090f35b503461046b57604036600319011261046b576040610be56134e8565b91600435815280602052209060018060a01b03165f52602052602060ff60405f2054166040519015158152f35b6134fe565b503461046b576020908160031936011261046b5760043590610c376145c8565b610c3f6145f7565b60ff600b5416610e46578115610e3457600554158015610e2a575b610c63906136fe565b610c6c82614615565b610c988230337f000000000000000000000000000000000000000000000000000000000000000061463c565b610ca182613e47565b91610cb8610caf8483613654565b93600c54613633565b600c556006546040516318160ddd60e01b81527f00000000000000000000000000000000000000000000000000000000000000006001600160a01b031694918682600481895afa908115610e1f578591610dee575b610d189250846146a6565b93803b15610dea576040516340c10f1960e01b8152336004820152602481018690529084908290604490829084905af18015610ddf57908491610dc7575b5050610d6482600654613633565b60065580610db8575b5060405190815282848201527fb08217ce123adc0cf2ed190b91bd4d1d6f87597fcd0c789711088e9f85fab41e60403392a360015f8051602061662783398151915255604051908152f35b610dc1906146e1565b5f610d6d565b610dd0906135b1565b610ddb57825f610d56565b8280fd5b6040513d86823e3d90fd5b8380fd5b90508682813d8311610e18575b610e058183613611565b81010312610a2557610d18915190610d0d565b503d610dfb565b6040513d87823e3d90fd5b5060065415610c5a565b604051631f2a200560e01b8152600490fd5b6040516310e126e160e21b8152600490fd5b503461046b578060031936011261046b576040517f00000000000000000000000000000000000000000000000000000000000000006001600160a01b03168152602090f35b503461046b578060031936011261046b57602061089961396b565b61358f565b503461046b578060031936011261046b57610ed6613c3a565b610ede6145f7565b600160ff19815416176001557f62e78cea01bee320cd4e420270b5ea74000d11b0c9f74754ebdbfc544b05a2586020604051338152a180f35b503461046b57606036600319011261046b57610f31613cb3565b610f396145c8565b60ff600b5416610e465760095462093a80810190818111611e655762092c70019081116105c5574210611e53576040516303d1689d60e11b8152670de0b6b3a764000060048201526020816024817f00000000000000000000000000000000000000000000000000000000000000006001600160a01b03165afa9081156114d9578291611e21575b506002546040516386fc88d360e01b815290602090829060049082906001600160a01b03165afa908115611521578391611def575b508082118015611de85782905b15611de257815b81611d6e575b5050600f546718493fba64ef0000925060ff161590506004358015611d5f57915b670214e8348c4f00008310611cc25750506004670de0b6b3a764000060015b6001546040516322841f0160e01b815293602091859190829060081c6001600160a01b03165afa928315610e1f578593611c8e575b50670f43fc2c04ee0000831015611b9f575050670de0b6b3a764000060015b6007546703782dace9d9000081018111611b8b576703782dace9d9000081018311611b79575b671bc16d674ec800008311611b69575b670de0b6b3a76400008310611b59575b60ff600d541680611b48575b611b38575b81611b2d575b50611b1f575b60055492600654906111198286613633565b80611a56575b5060408051634c6afee560e11b815290816004817f00000000000000000000000000000000000000000000000000000000000000006001600160a01b03165afa8015611a4b5787906119ff575b662386f26fc10000915080602435115f146119ea578061119161119692602435613654565b613ec1565b116119a55785604435611916575b6111c0916111b491858589614ed0565b94604086015190613633565b60608501518082111561190d576111d691613654565b905b60e08501518015158080611904575b156118f557506111f79192613654565b905b60c08501518681126118cd575060c085015161121491613633565b905b60055560065560075561122a600854613757565b6008554260095561125d61125561124a6060850151608086015190613633565b60a085015190613633565b600a54613633565b600a555b60195460145481108061189d575b156112855761127d90613757565b601955611261565b50906019545b6014548110156115ef578084526015602052604084209060ff60038301541680156115e3575b6115da57815460a01c60ff169182156115d157600554925b156115aa577f0000000000000000000000000000000000000000000000000000000000000000925b801580611537575b61152c5760018201546040516318160ddd60e01b815288916020826004816001600160a01b038b165afa9182156115215783926114e8575b509261133d92936146a6565b936001600160a01b0381163b156114e4576040516340c10f1960e01b8152306004820152602481018690529082908290604490829084906001600160a01b03165af180156114d9576114c1575b50507f3d53ffd94e6169fe8616aef06a81eba2335ff27eac4a60886ad869b22c4f347b60206001948360ff86955460a01c165f146114aa576113d187820154600554613633565b6005555b868101546113ec6113e582613e47565b8092613654565b906113fa600c918254613633565b90558061149b575b508660ff196003830154161760038201558160048201558681015461142a6016918254613654565b9055805460a01c60ff161561146f576017908782549101548082115f146114665761145491613654565b905b555b604051908152a25b0161128b565b50508990611456565b6018908782549101548082115f146114925761148a91613654565b905b55611458565b5050899061148c565b6114a4906146e1565b5f611402565b6114b987820154600654613633565b6006556113d5565b6114ca906135b1565b6114d557855f61138a565b8580fd5b6040513d84823e3d90fd5b5080fd5b925090506020823d602011611519575b8161150560209383613611565b81010312610a25579051889161133d611331565b3d91506114f8565b6040513d85823e3d90fd5b505060019150611460565b506040516318160ddd60e01b81526020816004816001600160a01b0389165afa90811561159f57889161156d575b5015156112f9565b90506020813d602011611597575b8161158860209383613611565b81010312610a2557515f611565565b3d915061157b565b6040513d8a823e3d90fd5b7f0000000000000000000000000000000000000000000000000000000000000000926112f1565b600654926112c9565b60019150611460565b506001820154156112b1565b50905b60195460145481108061186d575b156116165761160e90613757565b6019556115f2565b509061162061517d565b611628616071565b61163760055460065490613633565b80611720575b506101007fc59b8d34632cfe99252409b59ae812d388e00cfe9cf7e8a1921a2df69e893af9917fdd61069809ef8d608890acc089aa62bd79a1b97490fdb3b8c9c5b96caeeb45c5936008549485916005546116bb60065492600754604051948594859094939260609260808301968352602083015260408201520152565b0390a260e060405191805183526020810151602084015260408101516040840152606081015160608401526080810151608084015260a081015160a084015260c081015160c0840152015160e0820152a260015f805160206166278339815191525580f35b60015460405163c98c05b760e01b8152906020908290600490829060081c6001600160a01b03165afa908115610e1f578591611815575b507fdd61069809ef8d608890acc089aa62bd79a1b97490fdb3b8c9c5b96caeeb45c5937fc59b8d34632cfe99252409b59ae812d388e00cfe9cf7e8a1921a2df69e893af993610100939092801561180257671bc16d674ec80000916117bb91613ec1565b80600755116117f1575b670de0b6b3a7640000600754106117e0575b9350915061163d565b670de0b6b3a76400006007556117d7565b671bc16d674ec800006007556117c5565b5050670de0b6b3a76400006007556117d7565b919290506020823d602011611865575b8161183260209383613611565b81010312610a255790519091907fdd61069809ef8d608890acc089aa62bd79a1b97490fdb3b8c9c5b96caeeb45c5611757565b3d9150611825565b5080845260156020526040842060ff600382015416908115611890575b50611600565b600191500154155f61188a565b5080845260156020526040842060ff6003820154169081156118c0575b5061126f565b600191500154155f6118ba565b6118d69061395b565b808211156118ed576118e791613654565b90611216565b5050846118e7565b9050156111f9578591506111f9565b508184116111e7565b505084906111d8565b50611925604435602435613943565b80670de0b6b3a7640000810205670de0b6b3a7640000148115171561197d576044351561199157670de0b6b3a76400008102600160ff1b146044355f19141661197d57604435670de0b6b3a7640000909102056111a4565b634e487b7160e01b87526011600452602487fd5b634e487b7160e01b87526012600452602487fd5b60405162461bcd60e51b815260206004820152601d60248201527f53545243207072696365206d69736d61746368207673206f7261636c650000006044820152606490fd5b6119fa9061119160243582613654565b611196565b506040813d604011611a43575b81611a1960409383613611565b81010312611a3f576020815191015160ff811603611a3f57662386f26fc100009061116c565b8680fd5b3d9150611a0c565b6040513d89823e3d90fd5b60015460405163c98c05b760e01b8152906020908290600490829060081c6001600160a01b03165afa90811561159f578891611aed575b5080611a9a575b5061111f565b611aa5929450613ec1565b91671bc16d674ec800008311611add575b670de0b6b3a76400008310611acd575b5f80611a94565b670de0b6b3a76400009250611ac6565b671bc16d674ec800009250611ab6565b90506020813d602011611b17575b81611b0860209383613611565b81010312610a2557515f611a8d565b3d9150611afb565b611b2881614b78565b611107565b90508114155f611101565b670de0b6b3a764000092506110fb565b50670de0b6b3a764000083116110f6565b670de0b6b3a764000092506110ea565b671bc16d674ec8000092506110da565b6703782dace9d90000810192506110ca565b634e487b7160e01b86526011600452602486fd5b67120a871cc0020000831015611c13575050600754670de0b6b3a7640000811115611c0657670de0b6b3a763ffff198101818111611bf25790611be4611bea92614010565b90613654565b60015b6110a4565b634e487b7160e01b85526011600452602485fd5b611bea90611be485614010565b6716345785d8a00000831015611c65575050600754671158e460913d0000811115611c5857671158e460913cffff198101818111611bf25790611be4611bea92613fb9565b611bea90611be485613fb9565b6718fae27693b40000831015611bed57600754808311611c86575b506110a4565b91505f611c80565b9092506020813d602011611cba575b81611caa60209383613611565b81010312610a255751915f611085565b3d9150611c9d565b6701aa535d3d0c00008310611d3457670de0b6b3a76400008111611ce9575b600491611050565b670de0b6b3a763ffff198101908111611d2057611d0590613f62565b670de0b6b3a76400000180670de0b6b3a76400001115611ce1575b634e487b7160e01b84526011600452602484fd5b60049167016345785d8a0000841061105057600754808311611d57575b50611050565b91505f611d51565b5066f8b0a10e47000091611031565b81611191611d849266470de4df82000094613654565b1115611dd1577f3dbd393a434d37d6f773c27cafeae37c7fe6e80cbf02e7d1baf8c38477ff61aa91604091600160ff19600f541617600f5582519182526020820152a15b5f808080611010565b505060ff19600f5416600f55611dc8565b8261100a565b8190611003565b90506020813d602011611e19575b81611e0a60209383613611565b81010312610a2557515f610ff6565b3d9150611dfd565b90506020813d602011611e4b575b81611e3c60209383613611565b81010312610a2557515f610fc1565b3d9150611e2f565b60405163303423f360e01b8152600490fd5b634e487b7160e01b83526011600452602483fd5b503461046b578060031936011261046b576040517f00000000000000000000000000000000000000000000000000000000000000006001600160a01b03168152602090f35b503461046b578060031936011261046b576020601254604051908152f35b503461046b578060031936011261046b576020600854604051908152f35b503461046b57604036600319011261046b57600435611f176134e8565b611f1f613be4565b81835260036020526040832060016002820191611f6b835491611f4560ff84161561384f565b611f548482015442101561388e565b5460405160208101906107fd816104d08a856138d1565b60ff191617905560018060a01b03166bffffffffffffffffffffffff60a01b60025416176002557fea04ffa82aa57b7937fa7fd295d8adaf45ec23d1bafdfafc3878cba7a4a29f758280a280f35b503461046b578060031936011261046b5760015460405163c98c05b760e01b815260089190911c6001600160a01b03169160208083600481875afa9283156114d95782936120c1575b50604051635f8f5b2560e11b8152908082600481885afa918215611521578392612090575b5080600495604051968780926322841f0160e01b82525afa928315610a315792612060575b606094506040519384528301526040820152f35b80925084813d8311612089575b6120778183613611565b81010312610a2557606093519161204c565b503d61206d565b9491508085813d83116120ba575b6120a88183613611565b81010312610a25579351909380612027565b503d61209e565b9080935081813d83116120e9575b6120d98183613611565b81010312610a255751915f612002565b503d6120cf565b613520565b503461046b578060031936011261046b5760206040516718fae27693b400008152f35b503461046b578060031936011261046b576020601054604051908152f35b503461046b578060031936011261046b576020600c54604051908152f35b503461046b576020908160031936011261046b576121706134d2565b90612179613be4565b61218d6001600160a01b03831615156137dc565b6004549161219a83613757565b6004556040516104de816104d08782019485613814565b503461046b578060031936011261046b576020600a54604051908152f35b503461046b578060031936011261046b576020601754604051908152f35b503461046b57604036600319011261046b576004359061220b613563565b906122146145c8565b61221c6145f7565b60ff600b5416610e46578215610e3457600e548061235b575b50612240828461476f565b612349578261227360209430337f000000000000000000000000000000000000000000000000000000000000000061463c565b61227f81601654613633565b60165582156123355761229481601754613633565b6017555b6122eb601454936122a885613757565b6014556040600854948151926122bd846135d9565b3384521515958689850152858385015260608401528060808401528060a08401528681526015885220613765565b60405190815282848201527f5e66654e511b0a08265187f389d7d9febfbe6008c2e7ef4453a0dd798925109260403392a360015f8051602061662783398151915255604051908152f35b61234181601854613633565b601855612298565b6040516329644e1960e11b8152600490fd5b61237f8461237a61237160055460065490613633565b60165490613633565b613633565b1161238a575f612235565b6040516337c021db60e01b8152600490fd5b503461046b576020806003193601126114e457600435906123bb6145c8565b818352601581526040832080546001600160a01b0392909133848416036107395760ff60038201541615612501576004019182549384156124ef5760ff83928880965560a01c165f146124c9577f00000000000000000000000000000000000000000000000000000000000000005b60405163a9059cbb60e01b815233600482015260248101879052948592604492849291165af1918215610e1f577f6b1069552f63b401b74bc71e75594d0a8bc61f7a42998e0f201b78f9aa600d329261249c575b506040519283523392a360015f805160206166278339815191525580f35b6124bb90823d84116124c2575b6124b38183613611565b81019061373f565b505f61247e565b503d6124a9565b7f000000000000000000000000000000000000000000000000000000000000000061242a565b604051630662741160e01b8152600490fd5b60405162adf78760e11b8152600490fd5b503461046b578060031936011261046b57602060405167096fd865af4400008152f35b503461046b578060031936011261046b57602060ff600154166040519015158152f35b503461046b578060031936011261046b576020601654604051908152f35b613572565b503461046b578060031936011261046b576020600554604051908152f35b503461046b578060031936011261046b576020601954604051908152f35b503461046b57604036600319011261046b57600435906125d5613563565b906125de6145c8565b8215610e345781156127a9577f00000000000000000000000000000000000000000000000000000000000000005b6040516370a0823160e01b8152336004820152602094916001600160a01b0316908581602481855afa908115610ddf579083918591612778575b5010612766578483916064604051809481936323b872dd60e01b83523360048401523060248401528760448401525af1801561152157612749575b506010549261268f84613757565b6010556126d66008549360408051916126a7836135d9565b33835284151596878a850152868385015260608401528060808401528060a08401528781526011895220613765565b15612735576126e781601254613633565b6012555b60405190815282848201527fb7325fce70c32010433dccf87fc9e9b26776699cc1936678736a61c5e4da4c5c60403392a360015f8051602061662783398151915255604051908152f35b61274181601354613633565b6013556126eb565b61275f90853d87116124c2576124b38183613611565b505f612681565b604051633999656760e01b8152600490fd5b809250878092503d83116127a2575b6127918183613611565b81010312610a25578290515f612646565b503d612787565b7f000000000000000000000000000000000000000000000000000000000000000061260c565b503461046b576020908160031936011261046b576004356127ee6145c8565b6127f66145f7565b60ff600b5416610e46578015610e34576005541580156129b3575b61281a906136fe565b61282381614615565b61284f8130337f000000000000000000000000000000000000000000000000000000000000000061463c565b61285881613e47565b61286e6128658284613654565b91600c54613633565b600c556005546040516318160ddd60e01b81527f00000000000000000000000000000000000000000000000000000000000000006001600160a01b031694918682600481895afa908115611521578391612982575b6128ce9250856146a6565b93803b156114e4576040516340c10f1960e01b8152336004820152602481018690529082908290604490829084905af180156114d95761296e575b50509060019161291b82600554613633565b60055580610db8575060405190815282848201527fb08217ce123adc0cf2ed190b91bd4d1d6f87597fcd0c789711088e9f85fab41e60403392a360015f8051602061662783398151915255604051908152f35b61297882916135b1565b61046b5780612909565b90508682813d83116129ac575b6129998183613611565b81010312610a25576128ce9151906128c3565b503d61298f565b5060065415612811565b503461046b578060031936011261046b5760015460405160089190911c6001600160a01b03168152602090f35b503461046b578060031936011261046b576020600654604051908152f35b503461046b578060031936011261046b57612a21613be4565b60015460ff811615612a615760ff19166001557f5db9ee0a495bf2e6ff9c91a7834c1ba4fdd244a5e8aa4e537bd38aeae4b073aa6020604051338152a180f35b604051638dfc202b60e01b8152600490fd5b503461046b578060031936011261046b576020600e54604051908152f35b503461046b578060031936011261046b576040517f00000000000000000000000000000000000000000000000000000000000000006001600160a01b03168152602090f35b5034610a2557602080600319360112610a2557600435801591821592838303610a2557612b016145c8565b60ff600b541615612ea357612dea575b8115612dc3577f0000000000000000000000000000000000000000000000000000000000000000915b6040516370a0823160e01b8082523360048301526001600160a01b03949092919085168482602481845afa918215612d1d575f92612d94575b508115610e34576040516318160ddd60e01b81528581600481855afa8015612d1d575f90612d65575b612bb191508415612d5d576005545b8461434c565b95857f000000000000000000000000000000000000000000000000000000000000000095602460405180948193825230600483015289165afa908115612d1d575f91612d30575b50808711612d28575b50803b15610a2557604051632770a7eb60e21b815233600482015260248101929092525f908290604490829084905af18015612d1d57612ce4575b507fff60c38d8925ab80279526d41968499c7be11a77ccea4f1a1ce9fa66ba70f13292919015612cbf576005548480821115612cb757612c7b91613654565b6005555b8380612ca5575b50506040519283523392a360015f805160206166278339815191525580f35b612cb0913390613d2f565b5f83612c86565b505085612c7b565b6006548480821115612cdc57612cd491613654565b600655612c7f565b505085612cd4565b7fff60c38d8925ab80279526d41968499c7be11a77ccea4f1a1ce9fa66ba70f1329392919650612d13906135b1565b5f95909192612c3c565b6040513d5f823e3d90fd5b95505f612c01565b90508581813d8311612d56575b612d478183613611565b81010312610a2557515f612bf8565b503d612d3d565b600654612bab565b508581813d8311612d8d575b612d7b8183613611565b81010312610a2557612bb19051612b9c565b503d612d71565b9091508481813d8311612dbc575b612dac8183613611565b81010312610a255751905f612b73565b503d612da2565b7f000000000000000000000000000000000000000000000000000000000000000091612b3a565b6040516318160ddd60e01b815281816004817f00000000000000000000000000000000000000000000000000000000000000006001600160a01b03165afa908115612d1d575f91612e76575b5015612b11576064906040519062461bcd60e51b8252600482015260136024820152721cd95b9a5bdc8818db185a5b5cc8199a5c9cdd606a1b6044820152fd5b90508181813d8311612e9c575b612e8d8183613611565b81010312610a2557515f612e36565b503d612e83565b604051633c545b7360e21b8152600490fd5b34610a25576020366003190112610a2557612ece613be4565b600435600e55005b34610a25576020366003190112610a25576004355f526003602052606060405f2080549060ff600260018301549201541690604051928352602083015215156040820152f35b34610a25576040366003190112610a2557612f356134e8565b336001600160a01b03821603612f5357612f5190600435614556565b005b60405163334bd91960e11b8152600490fd5b34610a25575f366003190112610a255760206040517ffc8737ab85eb45125971625a9ebdb75cc78e01d5c1fa80c4c6e5203f47bc4fab8152f35b34610a25575f366003190112610a2557612fb7613c3a565b600160ff198181600b541617600b55612fce6145f7565b815416176001557f62e78cea01bee320cd4e420270b5ea74000d11b0c9f74754ebdbfc544b05a2586020604051338152a16130076143c0565b61300f614476565b7f5107bb6a8ff24e65eb96e6007aa42503de321b5fccfda5ba2eafbbf8ee5fd3606020604051428152a1005b34610a25575f366003190112610a25576020610899613661565b34610a25575f366003190112610a25576020601354604051908152f35b34610a25576040366003190112610a2557612f516004356130916134e8565b90805f525f6020526130a9600160405f200154613d0e565b613dad565b34610a25575f366003190112610a2557602060405166470de4df8200008152f35b34610a25575f366003190112610a255760206040516709b6e64a8ec600008152f35b34610a25575f366003190112610a255760206040516701aa535d3d0c00008152f35b34610a25575f366003190112610a255760206040517f55435dd261a4b9b3364963f7738a7a662ad9c84396d64be3365284bb7f0a50418152f35b34610a25575f366003190112610a25576040517f00000000000000000000000000000000000000000000000000000000000000006001600160a01b03168152602090f35b34610a25576020366003190112610a25576004355f525f6020526020600160405f200154604051908152f35b34610a25575f366003190112610a25576040517f00000000000000000000000000000000000000000000000000000000000000006001600160a01b03168152602090f35b34610a25575f366003190112610a25576002546040516001600160a01b039091168152602090f35b34610a25575f366003190112610a2557602060405167010a741a462780008152f35b34610a25575f366003190112610a255760206040516718493fba64ef00008152f35b34610a25575f366003190112610a2557602060ff600d54166040519015158152f35b34610a25576020366003190112610a25576132a86134d2565b6132b0613be4565b600a546040516370a0823160e01b81523060048201527f000000000000000000000000000000000000000000000000000000000000000092906020816024816001600160a01b0388165afa908115612d1d575f91613363575b50613319600c5460165490613633565b8082111561335b5761332a91613654565b808311156133505761333d908093613654565b600a558161334757005b612f5192613d2f565b5061333d8280613654565b50505f61332a565b90506020813d60201161338d575b8161337e60209383613611565b81010312610a25575184613309565b3d9150613371565b34610a25575f366003190112610a25576020601454604051908152f35b34610a25575f366003190112610a255760206040516709fdf42f6e4800008152f35b34610a25575f366003190112610a25576040517f00000000000000000000000000000000000000000000000000000000000000006001600160a01b03168152602090f35b34610a25575f366003190112610a2557602060405167120a871cc00200008152f35b34610a25576020366003190112610a255760043563ffffffff60e01b8116809103610a2557602090637965db0b60e01b811490811561347f575b506040519015158152f35b6301ffc9a760e01b14905082613474565b34610a25575f366003190112610a2557806716345785d8a0000060209252f35b34610a25575f366003190112610a2557602060405167016345785d8a00008152f35b600435906001600160a01b0382168203610a2557565b602435906001600160a01b0382168203610a2557565b34610a25575f366003190112610a25576020604051671bc16d674ec800008152f35b34610a25575f366003190112610a255760206040516611c37937e080008152f35b34610a25575f366003190112610a255760206040516703782dace9d900008152f35b602435908115158203610a2557565b34610a25575f366003190112610a2557602060405162093a808152f35b34610a25575f366003190112610a25576020604051670214e8348c4f00008152f35b67ffffffffffffffff81116135c557604052565b634e487b7160e01b5f52604160045260245ffd5b60c0810190811067ffffffffffffffff8211176135c557604052565b6060810190811067ffffffffffffffff8211176135c557604052565b90601f8019910116810190811067ffffffffffffffff8211176135c557604052565b9190820180921161364057565b634e487b7160e01b5f52601160045260245ffd5b9190820391821161364057565b6040516318160ddd60e01b81526020816004817f00000000000000000000000000000000000000000000000000000000000000006001600160a01b03165afa908115612d1d575f916136cc575b5080156136c4576136c190600654613ec1565b90565b50620f424090565b90506020813d6020116136f6575b816136e760209383613611565b81010312610a2557515f6136ae565b3d91506136da565b1561370557565b60405162461bcd60e51b81526020600482015260126024820152711d5cd9481c995c5d595cdd11195c1bdcda5d60721b6044820152606490fd5b90816020910312610a2557518015158103610a255790565b5f1981146136405760010190565b8151815460208401516001600160a81b03199091166001600160a01b03929092169190911790151560a090811b60ff60a01b169190911782556040830151600183015560608301516002830155608083015160038301805491151560ff1660ff199290921691909117905590916004910151910155565b156137e357565b60405162461bcd60e51b81526020600482015260096024820152683d32b9379030b2323960b91b6044820152606490fd5b60408082526011908201527039b2ba2632b73234b733a0b230b83a32b960791b60608201526001600160a01b03909116602082015260800190565b1561385657565b60405162461bcd60e51b815260206004820152601060248201526f185b1c9958591e48195e1958dd5d195960821b6044820152606490fd5b1561389557565b60405162461bcd60e51b81526020600482015260146024820152731d1a5b595b1bd8dac81b9bdd08195b185c1cd95960621b6044820152606490fd5b6040808252600c908201526b1cd95d10dd5c9d99541bdbdb60a21b60608201526001600160a01b03909116602082015260800190565b1561390e57565b60405162461bcd60e51b815260206004820152600d60248201526c0d0c2e6d040dad2e6dac2e8c6d609b1b6044820152606490fd5b81810392915f13801582851316918412161761364057565b600160ff1b8114613640575f0390565b6040516318160ddd60e01b81526020816004817f00000000000000000000000000000000000000000000000000000000000000006001600160a01b03165afa908115612d1d575f916139cb575b5080156136c4576136c190600554613ec1565b90506020813d6020116139f5575b816139e660209383613611565b81010312610a2557515f6139b8565b3d91506139d9565b600154604080516322841f0160e01b815260209283908290600490829060081c6001600160a01b03165afa908115613bae575f91613b81575b50670f43fc2c04ee00008110613b005767120a871cc00200008110613ac2576716345785d8a000008110613a6957505050565b670de0b6b3a76400008060075411613a82575b50505050565b7f448faa069c0b80be106c9cf457fcaadf6ac1e0adfe3ed3ba26f86d72979cd36d93613aac61481b565b816007558351928352820152a15f808080613a7c565b670de0b6b3a76400007f448faa069c0b80be106c9cf457fcaadf6ac1e0adfe3ed3ba26f86d72979cd36d93613af56143c0565b8351928352820152a1565b50907f5107bb6a8ff24e65eb96e6007aa42503de321b5fccfda5ba2eafbbf8ee5fd36091613b2c6143c0565b613b34614476565b600160ff198181600b541617600b55613b4b6145f7565b815416176001557f62e78cea01bee320cd4e420270b5ea74000d11b0c9f74754ebdbfc544b05a258828251338152a151428152a1565b90508281813d8311613ba7575b613b988183613611565b81010312610a2557515f613a36565b503d613b8e565b82513d5f823e3d90fd5b600554613bc760065482613633565b8015613bd6576136c191613ec1565b50506709b6e64a8ec6000090565b335f9081527fad3228b676f7d3cd4284a5443f17f1962b36e491b30a40b2405849e597ba5fb5602052604090205460ff1615613c1c57565b60405163e2517d3f60e01b81523360048201525f6024820152604490fd5b335f9081527f8a40f0b47fdc2a0ce293b772acfc7508c8315a4d462786c1adc3a56f92ca2d0560205260409020547f55435dd261a4b9b3364963f7738a7a662ad9c84396d64be3365284bb7f0a50419060ff1615613c955750565b6044906040519063e2517d3f60e01b82523360048301526024820152fd5b335f9081527f0363fc6b1c9d3a5e0ab0c2ddc08deb0f30108829db06e84f370d2858ffe78c4660205260409020547ffc8737ab85eb45125971625a9ebdb75cc78e01d5c1fa80c4c6e5203f47bc4fab9060ff1615613c955750565b805f525f60205260405f20335f5260205260ff60405f20541615613c955750565b60405163a9059cbb60e01b5f9081526001600160a01b039384166004526024949094529260209060448180855af160015f5114811615613d8e575b8360405215613d7857505050565b635274afe760e01b835216600482015260249150fd5b6001811516613da457813b15153d151616613d6a565b833d5f823e3d90fd5b90815f525f60205260405f209060018060a01b031690815f5260205260ff60405f205416155f14613e2357815f525f60205260405f20815f5260205260405f20600160ff1982541617905533917f2f8788117e7eff1d82e926ec794901d17c78024a50270940304540a733656f0d5f80a4600190565b50505f90565b8115613e33570490565b634e487b7160e01b5f52601260045260245ffd5b67010a741a462780005f1981830981830291828083109203918083039214613eb057670de0b6b3a76400009082821115613e9e575f80516020616607833981519152940990828211900360ee1b910360121c170290565b634e487b715f5260116020526024601cfd5b5050670de0b6b3a764000091500490565b670de0b6b3a7640000915f198383099280830292838086109503948086039514613f555784831115613f3d5790829109815f038216809204600280826003021880830282030280830282030280830282030280830282030280830282030280920290030293600183805f03040190848311900302920304170290565b82634e487b715f52156003026011186020526024601cfd5b5050906136c19250613e29565b6706f05b59d3b200005f1981830981830291828083109203918083039214613eb057670de0b6b3a76400009082821115613e9e575f80516020616607833981519152940990828211900360ee1b910360121c170290565b670429d069189e00005f1981830981830291828083109203918083039214613eb057670de0b6b3a76400009082821115613e9e575f80516020616607833981519152940990828211900360ee1b910360121c170290565b670853a0d2313c00005f1981830981830291828083109203918083039214613eb057670de0b6b3a76400009082821115613e9e575f80516020616607833981519152940990828211900360ee1b910360121c170290565b670de0b6b3a76400005f19818309818302918280831092039180830392146140b55781811115613e9e57805f80516020616607833981519152940990828211900360ee1b910360121c170290565b9250500490565b905f1981830981830291828083109203918083039214613eb057670de0b6b3a76400009082821115613e9e575f80516020616607833981519152940990828211900360ee1b910360121c170290565b6607123e87f766275f1981830981830291828083109203918083039214613eb057670de0b6b3a76400009082821115613e9e575f80516020616607833981519152940990828211900360ee1b910360121c170290565b67012dfb0cb5e880005f19818309818302918280831092039180830392146141cc576802d1a51c7e005000009082821115613e9e577f20fbee291ac1c4c8be9fc3ee3855cb39c287847cd0e3237f229304951349eccd940990828211900360ec1b910360141c170290565b50506802d1a51c7e0050000091500490565b6611c37937e080005f19818309818302918280831092039180830392146141cc576802d1a51c7e005000009082821115613e9e577f20fbee291ac1c4c8be9fc3ee3855cb39c287847cd0e3237f229304951349eccd940990828211900360ec1b910360141c170290565b67016345785d8a00005f1981830981830291828083109203918083039214613eb057670de0b6b3a76400009082821115613e9e575f80516020616607833981519152940990828211900360ee1b910360121c170290565b6703782dace9d900005f1981830981830291828083109203918083039214613eb057670de0b6b3a76400009082821115613e9e575f80516020616607833981519152940990828211900360ee1b910360121c170290565b66470de4df8200005f1981830981830291828083109203918083039214613eb057670de0b6b3a76400009082821115613e9e575f80516020616607833981519152940990828211900360ee1b910360121c170290565b90915f198383099280830292838086109503948086039514613f555784831115613f3d5790829109815f038216809204600280826003021880830282030280830282030280830282030280830282030280830282030280920290030293600183805f03040190848311900302920304170290565b6143cf60055460065490613633565b8015614473576143de90614067565b60015460405163c98c05b760e01b8152906020908290600490829060081c6001600160a01b03165afa908115612d1d575f91614441575b50818111614421575050565b6144339161442e91613654565b6161cb565b670de0b6b3a7640000600755565b90506020813d60201161446b575b8161445c60209383613611565b81010312610a2557515f614415565b3d915061444f565b50565b60015460405163c98c05b760e01b815260089190911c6001600160a01b031690602081600481855afa908115612d1d575f91614524575b50806144c4575b5050670de0b6b3a7640000600755565b813b15610a25575f80926024604051809581936330897f1760e11b83528660048401525af1908115612d1d5761450b9261450392614515575b50616385565b600c54613633565b600c555f806144b4565b61451e906135b1565b5f6144fd565b90506020813d60201161454e575b8161453f60209383613611565b81010312610a2557515f6144ad565b3d9150614532565b90815f525f60205260405f209060018060a01b031690815f5260205260ff60405f2054165f14613e2357815f525f60205260405f20815f5260205260405f2060ff19815416905533917ff6391f5c32d9c69d2a47ea670b442974b53935d1edc7fd64eb21e047a839171b5f80a4600190565b5f8051602061662783398151915260028154146145e55760029055565b604051633ee5aeb560e01b8152600490fd5b60ff6001541661460357565b60405163d93c066560e01b8152600490fd5b600e549081614622575050565b6146359061237a60055460065490613633565b1161238a57565b6040516323b872dd60e01b5f9081526001600160a01b03938416600452938316602452604494909452909160209060648180855af160015f5114811615614690575b836040525f60605215613d7857505050565b6001811516613da457813b15153d15161661467e565b91801580156146d9575b6146bd576136c19261434c565b505064e8d4a51000908181029181830414901517156136405790565b5081156146b0565b6146ea9061644d565b6001546001600160a01b039061472990839060081c83167f000000000000000000000000000000000000000000000000000000000000000084166164e4565b60015460081c1690813b15610a25575f9160248392604051948593849263bad4a01f60e01b845260048401525af18015612d1d576147645750565b61476d906135b1565b565b600554906147ba6147b461479561478860175486613633565b8615614814578490613633565b94600654936147a660185486613633565b911561480e57505f90613633565b84613633565b91821561480657159081156147fd575b50613e23576147d891613ec1565b67096fd865af44000081109081156147ee575090565b6709fdf42f6e48000091501190565b9050155f6147ca565b505050505f90565b90613633565b5f90613633565b60055461482c5f9160065490613633565b8015614b745761483b90614067565b6001546040805163c98c05b760e01b8082529194909390926020916004916001600160a01b039190849088908590829060081c86165afa968715614b6a575f97614b3b575b506007549680821115614b185761489691613654565b8160015460081c168851630cc0bfa560e01b815285818681855afa908115614b0e575f91614ae1575b50808311614ad9575b50816149f1575b50505b60015460081c16865193845282848381845afa9384156149e75785946149b8575b508290875192838092635f8f5b2560e11b82525afa9384156149ad579361495a575b509084670de0b6b3a764000060809594937fdd29df2e2bd4d0ac7e2b871b66bc5666f1a5235c475f18ea48530cd1a330c6d697519586528501528301526060820152a1565b939250908184813d83116149a6575b6149738183613611565b81010312610a255792519192907fdd29df2e2bd4d0ac7e2b871b66bc5666f1a5235c475f18ea48530cd1a330c6d6614915565b503d614969565b8651903d90823e3d90fd5b9093508281813d83116149e0575b6149d08183613611565b81010312610a25575192826148f3565b503d6149c6565b87513d87823e3d90fd5b803b15610a25575f809160248b518094819363317afabb60e21b8352878a8401525af18015614acf57614aba575b50614a299061644d565b614a5d818360015460081c16847f0000000000000000000000000000000000000000000000000000000000000000166164e4565b8160015460081c1690813b15611a3f578691602483928b51948593849263bad4a01f60e01b8452898401525af18015614ab057908691156148cf57614aa1906135b1565b614aac57845f6148cf565b8480fd5b88513d88823e3d90fd5b614ac59196506135b1565b5f94614a29614a1f565b89513d5f823e3d90fd5b91505f6148c8565b90508581813d8311614b07575b614af88183613611565b81010312610a2557515f6148bf565b503d614aee565b8a513d5f823e3d90fd5b818111614b27575b50506148d2565b614b349161442e91613654565b5f80614b20565b9096508381813d8311614b63575b614b538183613611565b81010312610a255751955f614880565b503d614b49565b88513d5f823e3d90fd5b5050565b60055490614b8a5f9260065490613633565b8015614eb05781614b9a916140bc565b6001546040805163c98c05b760e01b80825295909390926004916020916001600160a01b039190839088908690829060081c86165afa968715614ea6575f97614e77575b506007549680821115614e5457614bf491613654565b8160015460081c168551630cc0bfa560e01b815284818781855afa908115614e4a575f91614e1d575b50808311614e15575b5081614d31575b50505b60015460081c16835197885281888481845afa978815614d27578598614cf8575b508190845193848092635f8f5b2560e11b82525afa938415614ced5793614cbb575b5050519182526020820192909252604081019290925260608201527fdd29df2e2bd4d0ac7e2b871b66bc5666f1a5235c475f18ea48530cd1a330c6d69080608081015b0390a1565b90809350813d8311614ce6575b614cd28183613611565b81010312610a255790519084614cb6614c73565b503d614cc8565b8351903d90823e3d90fd5b9097508181813d8311614d20575b614d108183613611565b81010312610a2557519681614c51565b503d614d06565b84513d87823e3d90fd5b803b15610a25575f8091602488518094819363317afabb60e21b8352878b8401525af18015614e0b57614df6575b50614d699061644d565b614d9d818360015460081c16847f0000000000000000000000000000000000000000000000000000000000000000166164e4565b8160015460081c1690813b15611a3f578691602483928851948593849263bad4a01f60e01b84528a8401525af18015614dec5790869115614c2d57614de1906135b1565b614aac57845f614c2d565b85513d88823e3d90fd5b614e019196506135b1565b5f94614d69614d5f565b86513d5f823e3d90fd5b91505f614c26565b90508481813d8311614e43575b614e348183613611565b81010312610a2557515f614c1d565b503d614e2a565b87513d5f823e3d90fd5b818111614e63575b5050614c30565b614e709161442e91613654565b5f80614e5c565b9096508281813d8311614e9f575b614e8f8183613611565b81010312610a255751955f614bde565b503d614e85565b85513d5f823e3d90fd5b505050565b9190915f838201938412911290801582169115161761364057565b9493929092604095865192610100840184811067ffffffffffffffff8211176135c55788525f84525f60208501525f888501525f60608501525f60808501525f60a08501525f60c08501525f60e08501528397614f2d8784613633565b9485156151725750670de0b6b3a764000086111561515d57670de0b6b3a763ffff198601918683116136405761506f9661505a95614f7c615011955b6034614f748561410b565b9304906140bc565b9081811061513957614f9791614f9191613654565b886140bc565b808c52965b5f831261511057614fb592614fb0916140bc565b6140bc565b60208a01525b614fcd614fc784614161565b936141de565b9060608a019182525f861393845f1461510257868111156150fd5750855b86614ffe838d0192808452855190613633565b116150db575b505b890151905190613633565b5f91806150d2575b6150c1575b5080156150b75761505261503182614248565b915b60a08901928352615043876141de565b9260808a019384525190613943565b905190613943565b905f81126150a8575b50602085015190614eb5565b9061508160c085019280845282614eb5565b905f821261508e57505050565b61509a6150a49261395b565b60e086015261395b565b9052565b6150b191614eb5565b5f615063565b6150525f91615033565b6150cc915083613654565b5f61501e565b50808411615019565b51808711156150f6576150ee9087613654565b82525f615004565b505f6150ee565b614feb565b505f818b01525f8252615006565b90614fb061512a9261512461512f9561395b565b906140bc565b61395b565b60208a0152614fbb565b61514961514f9161515793613654565b896140bc565b5f8d5261395b565b96614f9c565b6150119161506f9661505a95614f7c5f614f69565b985050505050505050565b600554906006549161518f8382613633565b90811561606b57600d5460ff81161561605d5767016345785d8a00005b6012546040516318160ddd60e01b8152919691906020826004817f00000000000000000000000000000000000000000000000000000000000000006001600160a01b03165afa908115612d1d5785905f92616025575b61520c93506165ee565b6013546040516318160ddd60e01b8152906020826004817f00000000000000000000000000000000000000000000000000000000000000006001600160a01b03165afa918215612d1d575f92615fef575b509061526c9361480e926165ee565b60ff8216159081615fdd575b50615f93575b5061528c84600c54926140bc565b9381905f905f935b601a54601054811080615f7a575b156152b8576152b090613757565b601a55615294565b5090919495601a54935b6010548510156157e257845f52601160205260405f209460ff60038701541680156157ce575b80156157c2575b6157b6576005546040516318160ddd60e01b8152906020826004817f00000000000000000000000000000000000000000000000000000000000000006001600160a01b03165afa908115612d1d575f91615780575b615353925060018901546165ee565b918a61535f848a613633565b11615773578281106154cf576153bb906153b58461539881968794600c54828082115f146154c75761539091613654565b600c55613654565b9a5b60038b01805460ff1916600117905560048b01849055613633565b99613633565b600187015490967f00000000000000000000000000000000000000000000000000000000000000006001600160a01b03163b15610a2557604051632770a7eb60e21b815230600482015260248101929092525f82604481836001600160a01b037f0000000000000000000000000000000000000000000000000000000000000000165af1908115612d1d5760019461549c8660209387967f23c7543e82c59986dd55b7bcde4617f3fe6b97f790fe6a3f7344d97fe80ad518966154b8575b5060055484808211156154b05761548f91613654565b6005550154601254613654565b601255604051908152a25b019395946152c2565b50505f61548f565b6154c1906135b1565b5f615479565b50505f615390565b6154d98184613654565b6154e75f91600754906140bc565b60015460405163c98c05b760e01b8152909190602081600481600887901c6001600160a01b03165afa908115612d1d575f91615741575b50808211615739575b508061556c575b5050906153b56155416153bb9383613633565b948592600c54908082115f146155645761555a91613654565b600c555f9a61539a565b50505f61555a565b909150600882901c6001600160a01b03163b15610a25576040516330897f1760e11b815260048101829052915f9083906024908290849060081c6001600160a01b03165af1918215612d1d576155c6926145155750616385565b9060075480670de0b6b3a763ffff19810111613640576155fa906155f5670de0b6b3a763ffff198201856140bc565b613e29565b600154604051635f8f5b2560e11b815260089190911c6001600160a01b03169391602082600481885afa918215612d1d575f92615705575b50818111156156fd5750925b83615677575b506153bb928082111561566957615661615541916153b593613654565b92935061552e565b50506153b56155415f615661565b836156a2917f00000000000000000000000000000000000000000000000000000000000000006164e4565b60015460081c6001600160a01b031692833b15610a25575f8094602460405180978193631b8fec7360e11b83528660048401525af1938415612d1d576153bb946156ee575b5092615644565b6156f7906135b1565b5f6156e7565b90509261563e565b9091506020813d602011615731575b8161572160209383613611565b81010312610a255751905f615632565b3d9150615714565b90505f615527565b90506020813d60201161576b575b8161575c60209383613611565b81010312610a2557515f61551e565b3d915061574f565b96979550600191506154a7565b90506020823d6020116157ae575b8161579b60209383613611565b81010312610a2557615353915190615344565b3d915061578e565b600191969795506154a7565b506001860154156152ef565b50600160ff875460a01c16151514156152e8565b5094925094925094505b601a54601054811080615f61575b156158105761580890613757565b601a556157ec565b509091928181115f14615f55576158349161582a91613654565b935b6006546140bc565b925f90815b601a54601054811080615f3c575b1561585d5761585590613757565b601a55615839565b509293601a54915b601054831015615d6c57825f52601160205260405f209260ff6003850154168015615d5c575b8015615d50575b615d44576006546040516318160ddd60e01b8152906020826004817f00000000000000000000000000000000000000000000000000000000000000006001600160a01b03165afa908115612d1d575f91615d0e575b6158f6925060018701546165ee565b91886159028488613633565b11615d0157828110615a6257615956906159508461593381968794600c54828082115f146154c75761539091613654565b985b60038901805460ff1916600117905560048901849055613633565b97613633565b600185015490947f00000000000000000000000000000000000000000000000000000000000000006001600160a01b03163b15610a2557604051632770a7eb60e21b815230600482015260248101929092525f82604481836001600160a01b037f0000000000000000000000000000000000000000000000000000000000000000165af1908115612d1d57600194615a378660209387967f23c7543e82c59986dd55b7bcde4617f3fe6b97f790fe6a3f7344d97fe80ad51896615a53575b506006548480821115615a4b57615a2a91613654565b6006550154601354613654565b601355604051908152a25b01919392615865565b50505f615a2a565b615a5c906135b1565b5f615a14565b615a6c8184613654565b615a7a5f91600754906140bc565b60015460405163c98c05b760e01b8152909190602081600481600887901c6001600160a01b03165afa908115612d1d575f91615ccf575b50808211615cc7575b5080615aff575b505090615950615ad46159569383613633565b948592600c54908082115f14615af757615aed91613654565b600c555f98615935565b50505f615aed565b909150600882901c6001600160a01b03163b15610a25576040516330897f1760e11b815260048101829052915f9083906024908290849060081c6001600160a01b03165af1918215612d1d57615b59926145155750616385565b9060075480670de0b6b3a763ffff1981011161364057615b88906155f5670de0b6b3a763ffff198201856140bc565b600154604051635f8f5b2560e11b815260089190911c6001600160a01b03169391602082600481885afa918215612d1d575f92615c93575b5081811115615c8b5750925b83615c05575b506159569280821115615bf757615bef615ad49161595093613654565b929350615ac1565b5050615950615ad45f615bef565b83615c30917f00000000000000000000000000000000000000000000000000000000000000006164e4565b60015460081c6001600160a01b031692833b15610a25575f8094602460405180978193631b8fec7360e11b83528660048401525af1938415612d1d5761595694615c7c575b5092615bd2565b615c85906135b1565b5f615c75565b905092615bcc565b9091506020813d602011615cbf575b81615caf60209383613611565b81010312610a255751905f615bc0565b3d9150615ca2565b90505f615aba565b90506020813d602011615cf9575b81615cea60209383613611565b81010312610a2557515f615ab1565b3d9150615cdd565b9495935060019150615a42565b90506020823d602011615d3c575b81615d2960209383613611565b81010312610a25576158f69151906158e7565b3d9150615d1c565b60019194959350615a42565b50600184015415615892565b5060ff845460a01c16151561588b565b5094505050505b601a54601054811080615f23575b15615d9757615d8f90613757565b601a55615d73565b50600d549060ff8216615da8575050565b6012546005546040516318160ddd60e01b815291906020836004817f00000000000000000000000000000000000000000000000000000000000000006001600160a01b03165afa918215612d1d575f92615eed575b615e0793506165ee565b6013546006546040516318160ddd60e01b8152919291906020826004817f00000000000000000000000000000000000000000000000000000000000000006001600160a01b03165afa918215612d1d575f92615eb5575b50615e71929161480e91615e77956165ee565b91614248565b11615e7f5750565b60ff1916600d557f87bf92fcaaffe6087f6599853cc96e87c49c304e9e1ac4ebf613c4be73a426c06020600854604051908152a1565b909291506020813d602011615ee5575b81615ed260209383613611565b81010312610a2557519091615e77615e5e565b3d9150615ec5565b91506020833d602011615f1b575b81615f0860209383613611565b81010312610a2557615e07925191615dfd565b3d9150615efb565b50805f52601160205260ff600360405f20015416615d81565b50805f52601160205260ff600360405f20015416615847565b50506158345f9361582c565b50805f52601160205260ff600360405f200154166157fa565b50805f52601160205260ff600360405f200154166152a2565b60ff1916600117600d5560085460405190815267016345785d8a000094507ff8c792cda902c0c30a3dd4696122a06bd7272369deaa75f75e787d1b476c813090602090a15f61527e565b9050615fe88461429f565b105f615278565b91506020823d60201161601d575b8161600a60209383613611565b81010312610a255790519061526c61525d565b3d9150615ffd565b9150506020823d602011616055575b8161604160209383613611565b81010312610a25578461520c925191615202565b3d9150616034565b670214e8348c4f00006151ac565b50509050565b61608060055460065490613633565b80156144735761608f81613e47565b90600c549082821015614eb0576001546040516322841f0160e01b815260209460089290921c6001600160a01b03169391908581600481885afa8015612d1d575f90616196575b6718fae27693b4000091501061618f576160f9916160f391613654565b916142f6565b90818111156161875750915b8215159182616121575b50506161185750565b61476d906161cb565b60405163c98c05b760e01b81529192508290829060049082905afa908115612d1d5783925f92616156575b5050115f8061610f565b8193508092503d8311616180575b61616e8183613611565b81010312610a25578190515f8061614c565b503d616164565b905091616105565b5050505050565b508581813d83116161c4575b6161ac8183613611565b81010312610a25576718fae27693b4000090516160d6565b503d6161a2565b5f908015614b74576001546001600160a01b039160089190911c821690813b15610a25575f8060409360248551809481936330897f1760e11b83528760048401525af1801561637b57616366575b5061622390616385565b908260015460081c16928151635f8f5b2560e11b8152602081600481885afa90811561635c57869161632a575b508084111561632257935b8480616298575b5050505081811115616291576162789250613654565b806162805750565b61628c90600c54613633565b600c55565b5050616278565b6162c2917f00000000000000000000000000000000000000000000000000000000000000006164e4565b60015460081c16803b15614aac57908480926024835180958193631b8fec7360e11b83528960048401525af19081156163195750908491616305575b8084616262565b61630e906135b1565b610ddb57825f6162fe565b513d86823e3d90fd5b50829361625b565b90506020813d602011616354575b8161634560209383613611565b81010312610a2557515f616250565b3d9150616338565b83513d88823e3d90fd5b6163719194506135b1565b5f92616223616219565b83513d5f823e3d90fd5b6002546001600160a01b0391906163c290829084167f000000000000000000000000000000000000000000000000000000000000000085166164e4565b60638102818104606314821517156136405760846020925f606495600254166040519687958694630f7c084960e21b86526001600487015284602487015260448601520460648401525af1908115612d1d575f9161641e575090565b90506020813d602011616445575b8161643960209383613611565b81010312610a25575190565b3d915061642c565b6002546001600160a01b03919061648890829084167f00000000000000000000000000000000000000000000000000000000000000006164e4565b60638102818104606314821517156136405760846020925f606495600254166040519687958694630f7c084960e21b86528460048701526001602487015260448601520460648401525af1908115612d1d575f9161641e575090565b60405163095ea7b360e01b5f8181526001600160a01b03948516600481905260248790529195929060209060448180885af160015f51148116156165e1575b8160405215616535575b505050505050565b855f52816004525f60245260205f60448180885af160015f51148116156165c2575b81604052156165ab5750604051945f5260045260245260205f60448180855af160015f5114811615616595575b8360405215613d785780808061652d565b6001811516613da457813b15153d151616616584565b635274afe760e01b81528385166004820152602490fd5b60018115166165d857843b15153d151616616557565b503d5f823e3d90fd5b843b15153d151616616523565b919081156165ff576136c19261434c565b5050505f9056feaccb18165bd6fe31ae1cf318dc5b51eee0e1ba569b88cd74c1773b91fac106699b779b17422d0df92223018b32b4d1fa46e071723d6817e2486d003becc55f00a2646970667358221220ff2054f83b6e22486e26b844d154352a80d869f2eac2a40058e3240a7ea3475764736f6c6343000818003360a0604052346200036d5762000cd6803803806200001d8162000371565b9283398101906060818303126200036d5780516001600160401b0392908381116200036d57816200005091840162000397565b92602091828401518281116200036d576040916200007091860162000397565b930151936001600160a01b038516918286036200036d57815181811162000278576003908154906001948583811c9316801562000362575b888410146200034e578190601f93848111620002fb575b50889084831160011462000298575f926200028c575b50505f1982851b1c191690851b1782555b8651928311620002785760049687548581811c911680156200026d575b888210146200025a5782811162000212575b5086918411600114620001ab579383949184925f956200019f575b50501b925f19911b1c19161783555b156200016f57826080526040516108ce908162000408823960805181818160b70152818161018d01526103ea0152f35b60405162461bcd60e51b815291820152600a6024820152691e995c9bc81d985d5b1d60b21b604482015260649150fd5b015193505f8062000130565b9190601f19841692885f5284885f20945f5b8a89838310620001fa5750505010620001e0575b50505050811b0183556200013f565b01519060f8845f19921b161c191690555f808080620001d1565b868601518955909701969485019488935001620001bd565b885f52875f208380870160051c8201928a881062000250575b0160051c019086905b8281106200024457505062000115565b5f815501869062000234565b925081926200022b565b602289634e487b7160e01b5f525260245ffd5b90607f169062000103565b634e487b7160e01b5f52604160045260245ffd5b015190505f80620000d5565b90879350601f19831691865f528a5f20925f5b8c828210620002e45750508411620002cc575b505050811b018255620000e6565b01515f1983871b60f8161c191690555f8080620002be565b8385015186558b97909501949384019301620002ab565b909150845f52885f208480850160051c8201928b861062000344575b918991869594930160051c01915b82811062000335575050620000bf565b5f815585945089910162000325565b9250819262000317565b634e487b7160e01b5f52602260045260245ffd5b92607f1692620000a8565b5f80fd5b6040519190601f01601f191682016001600160401b038111838210176200027857604052565b919080601f840112156200036d5782516001600160401b0381116200027857602090620003cd601f8201601f1916830162000371565b928184528282870101116200036d575f5b818110620003f35750825f9394955001015290565b8581018301518482018401528201620003de56fe6080604090808252600480361015610015575f80fd5b5f3560e01c91826306fdde031461067357508163095ea7b3146105cb57816318160ddd146105ad57816323b872dd146104bb578163313ce567146104a057816340c10f19146103c157816370a082311461038b57816395d89b411461026c5781639dc29fac1461016357508063a9059cbb14610133578063dd62ed3e146100ea5763fbfa77cf146100a4575f80fd5b346100e6575f3660031901126100e657517f00000000000000000000000000000000000000000000000000000000000000006001600160a01b03168152602090f35b5f80fd5b50346100e657806003193601126100e657602090610106610792565b61010e6107a8565b9060018060a01b038091165f5260018452825f2091165f528252805f20549051908152f35b50346100e657806003193601126100e65760209061015c610152610792565b60243590336107be565b5160018152f35b82346100e657806003193601126100e65761017c610792565b602435929091906001600160a01b037f00000000000000000000000000000000000000000000000000000000000000008116330361025d57831692831561024757835f525f602052825f205491858310610213575f857fddf252ad1be2c89b69c2b068fc378daa952ba7f163c4a11628f55a4df523b3ef6020898881898688528785520381872055816002540360025551908152a3005b835163391434e360e21b81526001600160a01b03909216908201908152602081018390526040810186905281906060010390fd5b505f6024925191634b637e8f60e11b8352820152fd5b509051638d1af8bd60e01b8152fd5b82346100e6575f3660031901126100e6578051905f835460018160011c9060018316928315610381575b602093848410811461036e5783885290811561035257506001146102fe575b505050829003601f01601f191682019267ffffffffffffffff8411838510176102eb57508291826102e792528261074b565b0390f35b604190634e487b7160e01b5f525260245ffd5b5f878152929350837f8a35acfbc15ff81a39ae7d344fd709f28e8600b4aa8c65c6b64bfe7fe36bd19b5b83851061033e57505050508301018480806102b5565b805488860183015293019284908201610328565b60ff1916878501525050151560051b84010190508480806102b5565b602289634e487b7160e01b5f525260245ffd5b91607f1691610296565b82346100e65760203660031901126100e6576020906001600160a01b036103b0610792565b165f525f8252805f20549051908152f35b82346100e657806003193601126100e6576103da610792565b60243591906001600160a01b03907f000000000000000000000000000000000000000000000000000000000000000082163303610490571692831561047b576002549083820180921161046857505f927fddf252ad1be2c89b69c2b068fc378daa952ba7f163c4a11628f55a4df523b3ef9260209260025585855284835280852082815401905551908152a3005b601190634e487b7160e01b5f525260245ffd5b5f602492519163ec442f0560e01b8352820152fd5b8251638d1af8bd60e01b81528590fd5b82346100e6575f3660031901126100e6576020905160128152f35b9050346100e65760603660031901126100e6576104d6610792565b6104de6107a8565b906044359260018060a01b038216805f526001602052855f20335f52602052855f2054915f198310610519575b60208761015c8888886107be565b85831061058157811561056b57331561055557505f9081526001602090815286822033835281529086902091859003909155829061015c61050b565b6024905f885191634a1406b160e11b8352820152fd5b6024905f88519163e602df0560e01b8352820152fd5b8651637dc7a0d960e11b8152339181019182526020820193909352604081018690528291506060010390fd5b82346100e6575f3660031901126100e6576020906002549051908152f35b82346100e657806003193601126100e6576105e4610792565b60243590331561065d576001600160a01b03169081156106475760209350335f5260018452825f20825f52845280835f205582519081527f8c5be1e5ebec7d5bd14f71427d1e84f3dd0314c0f7b2291e5b200ac8c7c3b925843392a35160018152f35b8251634a1406b160e11b81525f81860152602490fd5b825163e602df0560e01b81525f81860152602490fd5b83346100e6575f3660031901126100e6575f60035460018160011c9060018316928315610741575b602093848410811461036e5783885290811561035257506001146106eb57505050829003601f01601f191682019267ffffffffffffffff8411838510176102eb57508291826102e792528261074b565b60035f908152929350837fc2575a0e9e593c00f959f8c92f12db2869c3395a3b0502d05e2516446f71f85b5b83851061072d57505050508301018480806102b5565b805488860183015293019284908201610717565b91607f169161069b565b602080825282518183018190529093925f5b82811061077e57505060409293505f838284010152601f8019910116010190565b81810186015184820160400152850161075d565b600435906001600160a01b03821682036100e657565b602435906001600160a01b03821682036100e657565b916001600160a01b03808416928315610880571692831561086857825f525f60205260405f2054908282106108365750817fddf252ad1be2c89b69c2b068fc378daa952ba7f163c4a11628f55a4df523b3ef92602092855f525f84520360405f2055845f5260405f20818154019055604051908152a3565b60405163391434e360e21b81526001600160a01b03919091166004820152602481019190915260448101829052606490fd5b60405163ec442f0560e01b81525f6004820152602490fd5b604051634b637e8f60e11b81525f6004820152602490fdfea2646970667358221220353c5956c64ae2b357d7d4b8f358268076f76e415d22ec9aa68400d60fc4217c64736f6c634300081800332f8788117e7eff1d82e926ec794901d17c78024a50270940304540a733656f0dad3228b676f7d3cd4284a5443f17f1962b36e491b30a40b2405849e597ba5fb5","linkReferences":{}},"methodIdentifiers":{"BORROW_DELEVERAGE()":"27996502","BORROW_EMERGENCY()":"8339c3bf","BORROW_FREEZE()":"9e579e77","BUNKER_CAP()":"2e2e542c","BUNKER_THRESHOLD()":"fd3a447f","DEFAULT_ADMIN_ROLE()":"a217fddf","DEFAULT_BORROW()":"ca169fed","EPOCHS_PER_YEAR()":"c9e0706c","EPOCH_SECONDS()":"5262265a","GUARDIAN_ROLE()":"24ea54f4","HF_ACCELERATE()":"04353f9b","HF_DELEVERAGE()":"01564483","HF_EMERGENCY()":"c2fad3fa","HF_FREEZE()":"6ae8483b","HF_TARGET()":"1d16b9c4","JR_MGMT_FEE()":"719bab04","JR_PERF_FEE()":"11ce5a85","KEEPER_ROLE()":"364bc15a","LEV_MAX()":"90ed4793","LEV_MIN()":"f5b0905d","LEV_RELEV_CAP()":"368f7a30","ORACLE_DEVIATION_MAX()":"2c9704f8","RATIO_MAX()":"1087abe1","RATIO_MIN()":"5de65921","RATIO_TARGET()":"28e0e631","RESERVE_TARGET()":"1e5bcf9f","SR_GROSS_APY()":"ddbc0103","SR_MGMT_FEE()":"3003867f","SUSDAT_YIELD()":"ff286533","TARGET_LEVERAGE()":"1dec15c6","TIMELOCK_DELAY()":"5ba1c1a9","WITHDRAWAL_CAP()":"866fd032","accruedFees()":"682c2058","bunkerMode()":"1dc7fc4b","canSettle()":"faf7ba6a","checkHealthFactor()":"ae9e5380","claimDeposit(uint256)":"5f8534ae","claimWithdrawal(uint256)":"f8444436","currentEpoch()":"76671808","currentLeverage()":"c85ab793","currentRatio()":"b131da40","curvePool()":"218751b2","depositJunior(uint256)":"8d97f3cb","depositRequests(uint256)":"fabd0341","depositSenior(uint256)":"4e43773e","emergencyClaim(bool)":"3721cc7d","emergencyShutdown()":"3403c2fc","executeSetCurvePool(uint256,address)":"7638cdf0","executeSetLendingAdapter(uint256,address)":"f1b38014","getBorrowRate()":"ba1c5e80","getHealthFactor()":"a5f352b7","getPosition()":"7398ab18","getRoleAdmin(bytes32)":"248a9ca3","grantRole(bytes32,address)":"2f2ff15d","hasRole(bytes32,address)":"91d14854","isShutdown()":"bf86d690","juniorNAV()":"488bc134","juniorSharePrice()":"310258e3","lastEpochTimestamp()":"f64fc647","lastProcessedDepositId()":"567419c1","lastProcessedWithdrawalId()":"9b78813f","lendingAdapter()":"49174834","nextDepositRequestId()":"1587a90c","nextRequestId()":"6a84a985","nextTimelockId()":"e959304f","oracleCircuitBroken()":"96cc945a","pause()":"8456cb59","paused()":"5c975abb","pendingDeposits()":"5c074f44","pendingJuniorDeposits()":"9518852b","pendingSeniorDeposits()":"6764754c","queueSetCurvePool(address)":"fcd244bb","queueSetLendingAdapter(address)":"6a1b7336","queuedJuniorShares()":"2f8ba9a4","queuedSeniorShares()":"7e6ee29c","renounceRole(bytes32,address)":"36568abe","requestDeposit(uint256,bool)":"609e1e18","requestRedeem(uint256,bool)":"50f9c245","revokeRole(bytes32,address)":"d547741f","sUsdat()":"04355529","sdcJunior()":"8289db56","sdcSenior()":"8d7debbf","seniorNAV()":"5abac3b6","seniorSharePrice()":"88281880","setTVLCap(uint256)":"3713b5d1","settleEpoch((uint256,uint256,uint256))":"834f0330","strcOracle()":"22a45bd2","supportsInterface(bytes4)":"01ffc9a7","timelockRequests(uint256)":"36cc3682","tvl()":"e5328e06","tvlCap()":"3f23fa1a","unpause()":"3f4ba83a","usdatToken()":"24b19bc5","usdc()":"3e413bee","usdcReserve()":"6a5809cc","withdrawFees(address)":"164e68de","withdrawalRequests(uint256)":"937b2581"},"id":41}