{"abi":[{"type":"constructor","inputs":[{"name":"_asset","type":"address","internalType":"address"},{"name":"_oracle","type":"address","internalType":"address"}],"stateMutability":"nonpayable"},{"type":"function","name":"allowance","inputs":[{"name":"owner","type":"address","internalType":"address"},{"name":"spender","type":"address","internalType":"address"}],"outputs":[{"name":"","type":"uint256","internalType":"uint256"}],"stateMutability":"view"},{"type":"function","name":"approve","inputs":[{"name":"spender","type":"address","internalType":"address"},{"name":"value","type":"uint256","internalType":"uint256"}],"outputs":[{"name":"","type":"bool","internalType":"bool"}],"stateMutability":"nonpayable"},{"type":"function","name":"asset","inputs":[],"outputs":[{"name":"","type":"address","internalType":"address"}],"stateMutability":"view"},{"type":"function","name":"asset_","inputs":[],"outputs":[{"name":"","type":"address","internalType":"address"}],"stateMutability":"view"},{"type":"function","name":"balanceOf","inputs":[{"name":"account","type":"address","internalType":"address"}],"outputs":[{"name":"","type":"uint256","internalType":"uint256"}],"stateMutability":"view"},{"type":"function","name":"claim","inputs":[],"outputs":[{"name":"","type":"uint256","internalType":"uint256"}],"stateMutability":"pure"},{"type":"function","name":"claimBatch","inputs":[{"name":"","type":"uint256[]","internalType":"uint256[]"}],"outputs":[{"name":"","type":"uint256","internalType":"uint256"}],"stateMutability":"pure"},{"type":"function","name":"convertToAssets","inputs":[{"name":"shares","type":"uint256","internalType":"uint256"}],"outputs":[{"name":"","type":"uint256","internalType":"uint256"}],"stateMutability":"view"},{"type":"function","name":"convertToShares","inputs":[{"name":"assets","type":"uint256","internalType":"uint256"}],"outputs":[{"name":"","type":"uint256","internalType":"uint256"}],"stateMutability":"view"},{"type":"function","name":"decimals","inputs":[],"outputs":[{"name":"","type":"uint8","internalType":"uint8"}],"stateMutability":"pure"},{"type":"function","name":"deposit","inputs":[{"name":"assets","type":"uint256","internalType":"uint256"},{"name":"receiver","type":"address","internalType":"address"}],"outputs":[{"name":"shares","type":"uint256","internalType":"uint256"}],"stateMutability":"nonpayable"},{"type":"function","name":"depositFeeBps","inputs":[],"outputs":[{"name":"","type":"uint256","internalType":"uint256"}],"stateMutability":"pure"},{"type":"function","name":"depositWithMinShares","inputs":[{"name":"","type":"uint256","internalType":"uint256"},{"name":"","type":"address","internalType":"address"},{"name":"","type":"uint256","internalType":"uint256"}],"outputs":[{"name":"","type":"uint256","internalType":"uint256"}],"stateMutability":"pure"},{"type":"function","name":"exchangeRate","inputs":[],"outputs":[{"name":"","type":"uint256","internalType":"uint256"}],"stateMutability":"view"},{"type":"function","name":"getStrcOracle","inputs":[],"outputs":[{"name":"","type":"address","internalType":"address"}],"stateMutability":"view"},{"type":"function","name":"getUnvestedAmount","inputs":[],"outputs":[{"name":"","type":"uint256","internalType":"uint256"}],"stateMutability":"pure"},{"type":"function","name":"getWithdrawalQueue","inputs":[],"outputs":[{"name":"","type":"address","internalType":"address"}],"stateMutability":"pure"},{"type":"function","name":"isBlacklisted","inputs":[{"name":"","type":"address","internalType":"address"}],"outputs":[{"name":"","type":"bool","internalType":"bool"}],"stateMutability":"pure"},{"type":"function","name":"mint","inputs":[{"name":"to","type":"address","internalType":"address"},{"name":"amount","type":"uint256","internalType":"uint256"}],"outputs":[],"stateMutability":"nonpayable"},{"type":"function","name":"mintWithMaxAssets","inputs":[{"name":"","type":"uint256","internalType":"uint256"},{"name":"","type":"address","internalType":"address"},{"name":"","type":"uint256","internalType":"uint256"}],"outputs":[{"name":"","type":"uint256","internalType":"uint256"}],"stateMutability":"pure"},{"type":"function","name":"name","inputs":[],"outputs":[{"name":"","type":"string","internalType":"string"}],"stateMutability":"view"},{"type":"function","name":"oracle_","inputs":[],"outputs":[{"name":"","type":"address","internalType":"address"}],"stateMutability":"view"},{"type":"function","name":"requestRedeem","inputs":[{"name":"","type":"uint256","internalType":"uint256"},{"name":"","type":"uint256","internalType":"uint256"}],"outputs":[{"name":"","type":"uint256","internalType":"uint256"}],"stateMutability":"pure"},{"type":"function","name":"setExchangeRate","inputs":[{"name":"rate","type":"uint256","internalType":"uint256"}],"outputs":[],"stateMutability":"nonpayable"},{"type":"function","name":"strcBalance","inputs":[],"outputs":[{"name":"","type":"uint256","internalType":"uint256"}],"stateMutability":"pure"},{"type":"function","name":"symbol","inputs":[],"outputs":[{"name":"","type":"string","internalType":"string"}],"stateMutability":"view"},{"type":"function","name":"totalAssets","inputs":[],"outputs":[{"name":"","type":"uint256","internalType":"uint256"}],"stateMutability":"view"},{"type":"function","name":"totalSupply","inputs":[],"outputs":[{"name":"","type":"uint256","internalType":"uint256"}],"stateMutability":"view"},{"type":"function","name":"transfer","inputs":[{"name":"to","type":"address","internalType":"address"},{"name":"value","type":"uint256","internalType":"uint256"}],"outputs":[{"name":"","type":"bool","internalType":"bool"}],"stateMutability":"nonpayable"},{"type":"function","name":"transferFrom","inputs":[{"name":"from","type":"address","internalType":"address"},{"name":"to","type":"address","internalType":"address"},{"name":"value","type":"uint256","internalType":"uint256"}],"outputs":[{"name":"","type":"bool","internalType":"bool"}],"stateMutability":"nonpayable"},{"type":"function","name":"usdatBalance","inputs":[],"outputs":[{"name":"","type":"uint256","internalType":"uint256"}],"stateMutability":"view"},{"type":"function","name":"vestingAmount","inputs":[],"outputs":[{"name":"","type":"uint256","internalType":"uint256"}],"stateMutability":"pure"},{"type":"event","name":"Approval","inputs":[{"name":"owner","type":"address","indexed":true,"internalType":"address"},{"name":"spender","type":"address","indexed":true,"internalType":"address"},{"name":"value","type":"uint256","indexed":false,"internalType":"uint256"}],"anonymous":false},{"type":"event","name":"Transfer","inputs":[{"name":"from","type":"address","indexed":true,"internalType":"address"},{"name":"to","type":"address","indexed":true,"internalType":"address"},{"name":"value","type":"uint256","indexed":false,"internalType":"uint256"}],"anonymous":false},{"type":"error","name":"ERC20InsufficientAllowance","inputs":[{"name":"spender","type":"address","internalType":"address"},{"name":"allowance","type":"uint256","internalType":"uint256"},{"name":"needed","type":"uint256","internalType":"uint256"}]},{"type":"error","name":"ERC20InsufficientBalance","inputs":[{"name":"sender","type":"address","internalType":"address"},{"name":"balance","type":"uint256","internalType":"uint256"},{"name":"needed","type":"uint256","internalType":"uint256"}]},{"type":"error","name":"ERC20InvalidApprover","inputs":[{"name":"approver","type":"address","internalType":"address"}]},{"type":"error","name":"ERC20InvalidReceiver","inputs":[{"name":"receiver","type":"address","internalType":"address"}]},{"type":"error","name":"ERC20InvalidSender","inputs":[{"name":"sender","type":"address","internalType":"address"}]},{"type":"error","name":"ERC20InvalidSpender","inputs":[{"name":"spender","type":"address","internalType":"address"}]}],"bytecode":{"object":"0x60c0346200036457601f906001600160401b0390601f19620010003881900385810183168401919085831185841017620002735780859260409485528339810103126200036457620000518262000388565b9262000061602080940162000388565b946200006c62000368565b600b81526a135bd8dac81cd554d1185d60aa1b858201526200008d62000368565b9160068352651cd554d1185d60d21b86840152815192848411620002735760039384546001948582811c9216801562000359575b8a83101462000345578185849311620002f2575b50899085831160011462000293575f9262000287575b50505f1982871b1c191690841b1784555b8051948511620002735760049687548481811c9116801562000268575b8282101462000255578381116200020d575b5080928611600114620001a55750849550908492915f9562000199575b50501b925f19911b1c19161790555b670de0b6b3a764000060055560805260a052604051610c6290816200039e8239608051818181610464015281816109000152610a08015260a05181610a790152f35b015193505f8062000148565b93929585908116885f52855f20955f905b89838310620001f25750505010620001d8575b50505050811b01905562000157565b01519060f8845f19921b161c191690555f808080620001c9565b858701518955909701969485019488935090810190620001b6565b885f52815f208480890160051c820192848a106200024b575b0160051c019085905b8281106200023f5750506200012b565b5f81550185906200022f565b9250819262000226565b602289634e487b7160e01b5f525260245ffd5b90607f169062000119565b634e487b7160e01b5f52604160045260245ffd5b015190505f80620000eb565b908987941691885f528b5f20925f5b8d828210620002db5750508411620002c3575b505050811b018455620000fc565b01515f1983891b60f8161c191690555f8080620002b5565b8385015186558a97909501949384019301620002a2565b909150865f52895f208580850160051c8201928c86106200033b575b918891869594930160051c01915b8281106200032c575050620000d5565b5f81558594508891016200031c565b925081926200030e565b634e487b7160e01b5f52602260045260245ffd5b91607f1691620000c1565b5f80fd5b60408051919082016001600160401b038111838210176200027357604052565b51906001600160a01b0382168203620003645756fe604060808152600480361015610013575f80fd5b5f3560e01c908162728f76146108bb57816301e1d1141461029057816306fdde03146107c757816307a2d13a14610777578163095ea7b3146106cf5781630e73ecef146106b557816318160ddd1461069757816323b872dd146105a5578163313ce5671461058a57816338d52e0f146105415781633ba0b9a91461056c57816340c10f19146105465781634c47fa10146102955781634e71d92d146101a85781635ba7c69e1461054157816362abebce146104ee5781636e553f651461041d57816370a08231146103e7578163743193d7146101a857816395d89b41146102e5578163a9059cbb146102b5578163ab8798271461029a578163bd662f5814610295578163bfb74d7114610290578163c6e6f59214610227578163c87d7e8d1461020d578163db068e0e146101f657508063dd62ed3e146101ad578063de66d559146101a3578063e7c2a608146101a8578063fd94f126146101a35763fe575a871461017c575f80fd5b3461019f57602036600319011261019f576020906101986109c7565b50515f8152f35b5f80fd5b610a64565b6108bb565b503461019f578060031936011261019f576020906101c96109c7565b6101d16109dd565b9060018060a01b038091165f5260018452825f2091165f528252805f20549051908152f35b3461019f57602036600319011261019f5735600555005b823461019f578060031936011261019f57602090515f8152f35b823461019f57602036600319011261019f57670de0b6b3a764000082358181029291811591840414171561027d5760055490811561026a57602093505191048152f35b601284634e487b7160e01b5f525260245ffd5b601183634e487b7160e01b5f525260245ffd5b6108d5565b610a37565b823461019f575f36600319011261019f5760209051600a8152f35b823461019f578060031936011261019f576020906102de6102d46109c7565b6024359033610ade565b5160018152f35b823461019f575f36600319011261019f578051905f9280549060018260011c91600184169384156103dd575b60209485851081146103ca578488529081156103a8575060011461034f575b61034b8686610341828b0383610aa8565b5191829182610980565b0390f35b5f9081529295507f8a35acfbc15ff81a39ae7d344fd709f28e8600b4aa8c65c6b64bfe7fe36bd19b5b828410610395575050508261034b94610341928201019486610330565b8054868501880152928601928101610378565b60ff191687860152505050151560051b83010192506103418261034b86610330565b602283634e487b7160e01b5f525260245ffd5b92607f1692610311565b823461019f57602036600319011261019f576020906001600160a01b0361040c6109c7565b165f525f8252805f20549051908152f35b823461019f578060031936011261019f578135906104396109dd565b81516323b872dd60e01b8152339481019490945230602485015260448401839052926020816064815f7f00000000000000000000000000000000000000000000000000000000000000006001600160a01b03165af180156104e4576104ac575b506104a682602094610bb8565b51908152f35b6020813d6020116104dc575b816104c560209383610aa8565b8101031261019f57518015150361019f5783610499565b3d91506104b8565b82513d5f823e3d90fd5b90503461019f57602036600319011261019f57803567ffffffffffffffff9182821161019f573660238301121561019f5781013591821161019f57602490369260051b01011161019f57602090515f8152f35b6109f3565b823461019f5736600319011261019f5761056a6105616109c7565b60243590610bb8565b005b823461019f575f36600319011261019f576020906005549051908152f35b823461019f575f36600319011261019f576020905160068152f35b90503461019f57606036600319011261019f576105c06109c7565b6105c86109dd565b906044359260018060a01b038216805f526001602052855f20335f52602052855f2054915f198310610603575b6020876102de888888610ade565b85831061066b57811561065557331561063f57505f908152600160209081528682203383528152908690209185900390915582906102de6105f5565b6024905f885191634a1406b160e11b8352820152fd5b6024905f88519163e602df0560e01b8352820152fd5b8651637dc7a0d960e11b8152339181019182526020820193909352604081018690528291506060010390fd5b823461019f575f36600319011261019f576020906002549051908152f35b823461019f575f36600319011261019f57602090515f8152f35b823461019f578060031936011261019f576106e86109c7565b602435903315610761576001600160a01b031690811561074b5760209350335f5260018452825f20825f52845280835f205582519081527f8c5be1e5ebec7d5bd14f71427d1e84f3dd0314c0f7b2291e5b200ac8c7c3b925843392a35160018152f35b8251634a1406b160e11b81525f81860152602490fd5b825163e602df0560e01b81525f81860152602490fd5b90503461019f57602036600319011261019f576005548135818102929181159184041417156107b45750670de0b6b3a76400006020925191048152f35b601190634e487b7160e01b5f525260245ffd5b823461019f575f36600319011261019f578051905f9260035460018160011c916001811680156108b1575b602094858510821461089e575083875290811561087e5750600114610824575b5050506103418261034b940383610aa8565b60035f9081529295507fc2575a0e9e593c00f959f8c92f12db2869c3395a3b0502d05e2516446f71f85b5b82841061086b575050508261034b946103419282010194610812565b805486850188015292860192810161084f565b60ff1916868501525050151560051b83010192506103418261034b610812565b602290634e487b7160e01b5f525260245ffd5b92607f16926107f2565b3461019f575f36600319011261019f5760206040515f8152f35b3461019f575f36600319011261019f576040516370a0823160e01b81523060048201526020816024817f00000000000000000000000000000000000000000000000000000000000000006001600160a01b03165afa8015610975575f90610942575b602090604051908152f35b506020813d60201161096d575b8161095c60209383610aa8565b8101031261019f5760209051610937565b3d915061094f565b6040513d5f823e3d90fd5b602080825282518183018190529093925f5b8281106109b357505060409293505f838284010152601f8019910116010190565b818101860151848201604001528501610992565b600435906001600160a01b038216820361019f57565b602435906001600160a01b038216820361019f57565b3461019f575f36600319011261019f576040517f00000000000000000000000000000000000000000000000000000000000000006001600160a01b03168152602090f35b3461019f57606036600319011261019f576024356001600160a01b0381160361019f5760206040515f8152f35b3461019f575f36600319011261019f576040517f00000000000000000000000000000000000000000000000000000000000000006001600160a01b03168152602090f35b90601f8019910116810190811067ffffffffffffffff821117610aca57604052565b634e487b7160e01b5f52604160045260245ffd5b916001600160a01b03808416928315610ba05716928315610b8857825f525f60205260405f205490828210610b565750817fddf252ad1be2c89b69c2b068fc378daa952ba7f163c4a11628f55a4df523b3ef92602092855f525f84520360405f2055845f5260405f20818154019055604051908152a3565b60405163391434e360e21b81526001600160a01b03919091166004820152602481019190915260448101829052606490fd5b60405163ec442f0560e01b81525f6004820152602490fd5b604051634b637e8f60e11b81525f6004820152602490fd5b6001600160a01b0316908115610b885760025490808201809211610c185760207fddf252ad1be2c89b69c2b068fc378daa952ba7f163c4a11628f55a4df523b3ef915f9360025584845283825260408420818154019055604051908152a3565b634e487b7160e01b5f52601160045260245ffdfea26469706673582212206eef2ee96a3b204cf661b6dc41f5018f55559c25ba2267a3e3d35593e122bf9b64736f6c63430008180033","linkReferences":{}},"methodIdentifiers":{"allowance(address,address)":"dd62ed3e","approve(address,uint256)":"095ea7b3","asset()":"38d52e0f","asset_()":"5ba7c69e","balanceOf(address)":"70a08231","claim()":"4e71d92d","claimBatch(uint256[])":"62abebce","convertToAssets(uint256)":"07a2d13a","convertToShares(uint256)":"c6e6f592","decimals()":"313ce567","deposit(uint256,address)":"6e553f65","depositFeeBps()":"ab879827","depositWithMinShares(uint256,address,uint256)":"bd662f58","exchangeRate()":"3ba0b9a9","getStrcOracle()":"fd94f126","getUnvestedAmount()":"e7c2a608","getWithdrawalQueue()":"0e73ecef","isBlacklisted(address)":"fe575a87","mint(address,uint256)":"40c10f19","mintWithMaxAssets(uint256,address,uint256)":"4c47fa10","name()":"06fdde03","oracle_()":"de66d559","requestRedeem(uint256,uint256)":"c87d7e8d","setExchangeRate(uint256)":"db068e0e","strcBalance()":"743193d7","symbol()":"95d89b41","totalAssets()":"01e1d114","totalSupply()":"18160ddd","transfer(address,uint256)":"a9059cbb","transferFrom(address,address,uint256)":"23b872dd","usdatBalance()":"bfb74d71","vestingAmount()":"00728f76"},"id":53}