{"abi":[{"type":"function","name":"DECIMALS","inputs":[],"outputs":[{"name":"","type":"uint8","internalType":"uint8"}],"stateMutability":"view"},{"type":"function","name":"getPrice","inputs":[],"outputs":[{"name":"","type":"uint256","internalType":"uint256"},{"name":"","type":"uint8","internalType":"uint8"}],"stateMutability":"view"},{"type":"function","name":"maxPrice","inputs":[],"outputs":[{"name":"","type":"uint256","internalType":"uint256"}],"stateMutability":"pure"},{"type":"function","name":"maxPriceStaleness","inputs":[],"outputs":[{"name":"","type":"uint256","internalType":"uint256"}],"stateMutability":"pure"},{"type":"function","name":"minPrice","inputs":[],"outputs":[{"name":"","type":"uint256","internalType":"uint256"}],"stateMutability":"pure"},{"type":"function","name":"price","inputs":[],"outputs":[{"name":"","type":"uint256","internalType":"uint256"}],"stateMutability":"view"},{"type":"function","name":"setPrice","inputs":[{"name":"_price","type":"uint256","internalType":"uint256"}],"outputs":[],"stateMutability":"nonpayable"}],"bytecode":{"object":"0x6080806040523461001e576402540be4005f5561016d90816100238239f35b5f80fdfe60806040908082526004361015610014575f80fd5b5f3560e01c9081632e0f26251461011e5750806391b7f5ed1461010657806398d5fdca146100e5578063a035b1fe146100c8578063c80d36b8146100ab578063e38d6b5c1461008c5763e45be8eb1461006b575f80fd5b34610088575f366003190112610088576020905163773594008152f35b5f80fd5b5034610088575f366003190112610088576020905164037e11d6008152f35b5034610088575f366003190112610088576020905162016da08152f35b5034610088575f366003190112610088576020905f549051908152f35b5034610088575f366003190112610088575f54815190815260086020820152f35b34610088576020366003190112610088576004355f55005b34610088575f3660031901126100885780600860209252f3fea264697066735822122003547de874a61bd2c877b3354b7f675c17aeec7c1a532d5d6b4088ce4e4d3cc664736f6c63430008180033","linkReferences":{}},"methodIdentifiers":{"DECIMALS()":"2e0f2625","getPrice()":"98d5fdca","maxPrice()":"e38d6b5c","maxPriceStaleness()":"c80d36b8","minPrice()":"e45be8eb","price()":"a035b1fe","setPrice(uint256)":"91b7f5ed"},"id":54}