{"abi":[{"type":"constructor","inputs":[{"name":"_collateralToken","type":"address","internalType":"address"},{"name":"_debtToken","type":"address","internalType":"address"}],"stateMutability":"nonpayable"},{"type":"function","name":"_borrowRate","inputs":[],"outputs":[{"name":"","type":"uint256","internalType":"uint256"}],"stateMutability":"view"},{"type":"function","name":"_collateral","inputs":[],"outputs":[{"name":"","type":"uint256","internalType":"uint256"}],"stateMutability":"view"},{"type":"function","name":"_debt","inputs":[],"outputs":[{"name":"","type":"uint256","internalType":"uint256"}],"stateMutability":"view"},{"type":"function","name":"_liqThreshold","inputs":[],"outputs":[{"name":"","type":"uint256","internalType":"uint256"}],"stateMutability":"view"},{"type":"function","name":"borrow","inputs":[{"name":"amount","type":"uint256","internalType":"uint256"}],"outputs":[],"stateMutability":"nonpayable"},{"type":"function","name":"collateralBalance","inputs":[],"outputs":[{"name":"","type":"uint256","internalType":"uint256"}],"stateMutability":"view"},{"type":"function","name":"collateralToken","inputs":[],"outputs":[{"name":"","type":"address","internalType":"contract IERC20"}],"stateMutability":"view"},{"type":"function","name":"currentBorrowRate","inputs":[],"outputs":[{"name":"","type":"uint256","internalType":"uint256"}],"stateMutability":"view"},{"type":"function","name":"debtBalance","inputs":[],"outputs":[{"name":"","type":"uint256","internalType":"uint256"}],"stateMutability":"view"},{"type":"function","name":"debtToken","inputs":[],"outputs":[{"name":"","type":"address","internalType":"contract IERC20"}],"stateMutability":"view"},{"type":"function","name":"depositCollateral","inputs":[{"name":"amount","type":"uint256","internalType":"uint256"}],"outputs":[],"stateMutability":"nonpayable"},{"type":"function","name":"fundDebtToken","inputs":[{"name":"amount","type":"uint256","internalType":"uint256"}],"outputs":[],"stateMutability":"nonpayable"},{"type":"function","name":"healthFactor","inputs":[],"outputs":[{"name":"","type":"uint256","internalType":"uint256"}],"stateMutability":"view"},{"type":"function","name":"liquidationThreshold","inputs":[],"outputs":[{"name":"","type":"uint256","internalType":"uint256"}],"stateMutability":"view"},{"type":"function","name":"maxBorrow","inputs":[],"outputs":[{"name":"","type":"uint256","internalType":"uint256"}],"stateMutability":"view"},{"type":"function","name":"repay","inputs":[{"name":"amount","type":"uint256","internalType":"uint256"}],"outputs":[],"stateMutability":"nonpayable"},{"type":"function","name":"setBorrowRate","inputs":[{"name":"rate","type":"uint256","internalType":"uint256"}],"outputs":[],"stateMutability":"nonpayable"},{"type":"function","name":"setCollateral","inputs":[{"name":"c","type":"uint256","internalType":"uint256"}],"outputs":[],"stateMutability":"nonpayable"},{"type":"function","name":"setDebt","inputs":[{"name":"d","type":"uint256","internalType":"uint256"}],"outputs":[],"stateMutability":"nonpayable"},{"type":"function","name":"setLiqThreshold","inputs":[{"name":"lt","type":"uint256","internalType":"uint256"}],"outputs":[],"stateMutability":"nonpayable"},{"type":"function","name":"withdrawCollateral","inputs":[{"name":"amount","type":"uint256","internalType":"uint256"}],"outputs":[],"stateMutability":"nonpayable"}],"bytecode":{"object":"0x60c0346100b857601f61080c38819003918201601f19168301916001600160401b038311848410176100bc5780849260409485528339810103126100b857610052602061004b836100d0565b92016100d0565b6001600160a01b039182166080521660a05266c3663566a58000600255670b72fd2103b2800060035560405161072790816100e5823960805181818161031601528181610399015261045b015260a0518181816101170152818161020e01526105530152f35b5f80fd5b634e487b7160e01b5f52604160045260245ffd5b51906001600160a01b03821682036100b85756fe604060808152600480361015610013575f80fd5b5f3560e01c9081630cc0bfa5146105ef57816322841f01146105cc5781632753efaa146104d65781632e2f14ca146103c8578163371fd8e61461050a5781633fabc6b7146104f45781634031234c146104d657816361092ec7146102b15781636112fe2e146103fd5781637dbf67a7146103e6578163af03353e146103c8578163b2016bd414610385578163b598f9b41461018b578163bad4a01f146102cf578163bf1eb64a146102b1578163c5ebeaec146101a8578163c98c05b71461018b578163d9e825e714610174578163dd3eaf041461015d57508063e878ba591461014a5763f8d8989814610104575f80fd5b34610146575f36600319011261014657517f00000000000000000000000000000000000000000000000000000000000000006001600160a01b03168152602090f35b5f80fd5b3461014657602036600319011261014657005b346101465760203660031901126101465735600255005b346101465760203660031901126101465735600355005b8234610146575f366003190112610146576020905f549051908152f35b82346101465760203660031901126101465781356101c461063f565b81116102795780610209936101dd6020936001546106e4565b600155835163a9059cbb60e01b8152339181019182526020820192909252909384918291604090910190565b03815f7f00000000000000000000000000000000000000000000000000000000000000006001600160a01b03165af1908115610270575061024657005b6102679060203d602011610269575b61025f8183610696565b8101906106cc565b005b503d610255565b513d5f823e3d90fd5b815162461bcd60e51b8152602081850152601260248201527165786365656473206d617820626f72726f7760701b6044820152606490fd5b8234610146575f366003190112610146576020906001549051908152f35b9050346101465760203660031901126101465781516323b872dd60e01b8152338183019081523060208281019190915292356040820181905292908290819060600103815f7f00000000000000000000000000000000000000000000000000000000000000006001600160a01b03165af1801561037b57610358935061035c575b505f546106e4565b5f55005b6103749060203d6020116102695761025f8183610696565b505f610350565b83513d5f823e3d90fd5b8234610146575f36600319011261014657517f00000000000000000000000000000000000000000000000000000000000000006001600160a01b03168152602090f35b8234610146575f366003190112610146576020906002549051908152f35b346101465760203660031901126101465735600155005b82346101465760203660031901126101465781355f5480821161049357906104569361042b82602094610632565b5f55835163a9059cbb60e01b8152339181019182526020820192909252909384918291604090910190565b03815f7f00000000000000000000000000000000000000000000000000000000000000006001600160a01b03165af1908115610270575061024657005b825162461bcd60e51b8152602081860152601760248201527f696e73756666696369656e7420636f6c6c61746572616c0000000000000000006044820152606490fd5b8234610146575f366003190112610146576020906003549051908152f35b3461014657602036600319011261014657355f55005b82346101465760203660031901126101465780516323b872dd60e01b8152338184019081523060208281019190915293356040820181905293919291908390819060600103815f7f00000000000000000000000000000000000000000000000000000000000000006001600160a01b03165af190811561027057506105ad575b5060015490808211156105a5576105a091610632565b600155005b50505f600155005b6105c59060203d6020116102695761025f8183610696565b508161058a565b8234610146575f366003190112610146576020906105e8610675565b9051908152f35b8234610146575f366003190112610146576020906105e861063f565b8181029291811591840414171561061e57565b634e487b7160e01b5f52601160045260245ffd5b9190820391821161061e57565b670de0b6b3a76400006106565f546003549061060b565b046001548082115f1461066f5761066c91610632565b90565b50505f90565b60015480156106905761068c5f546003549061060b565b0490565b505f1990565b90601f8019910116810190811067ffffffffffffffff8211176106b857604052565b634e487b7160e01b5f52604160045260245ffd5b90816020910312610146575180151581036101465790565b9190820180921161061e5756fea2646970667358221220da7f8da45204709ef1be304217f48ccd04e33052738da6365445611fe96d3f0164736f6c63430008180033","linkReferences":{}},"methodIdentifiers":{"_borrowRate()":"af03353e","_collateral()":"b598f9b4","_debt()":"61092ec7","_liqThreshold()":"2753efaa","borrow(uint256)":"c5ebeaec","collateralBalance()":"c98c05b7","collateralToken()":"b2016bd4","currentBorrowRate()":"2e2f14ca","debtBalance()":"bf1eb64a","debtToken()":"f8d89898","depositCollateral(uint256)":"bad4a01f","fundDebtToken(uint256)":"e878ba59","healthFactor()":"22841f01","liquidationThreshold()":"4031234c","maxBorrow()":"0cc0bfa5","repay(uint256)":"371fd8e6","setBorrowRate(uint256)":"dd3eaf04","setCollateral(uint256)":"3fabc6b7","setDebt(uint256)":"7dbf67a7","setLiqThreshold(uint256)":"d9e825e7","withdrawCollateral(uint256)":"6112fe2e"},"id":52}